:100000000C9462000C9412070C94EB060C948A007A
:100010000C948A000C948A000C948A000C948A0038
:100020000C948A000C948A000C948A000C948A0028
:100030000C948A000C948A000C948A000C948A0018
:100040000C94A1060C948A000C94F6040C94D00431
:100050000C948A000C948A000C948A000C948A00F8
:100060000C948A000C948A000000000024002700F1
:100070002A0000000000250028002B0000000000DE
:1000800023002600290004040404040404040202DA
:100090000202020203030303030301020408102007
:1000A0004080010204081020010204081020000012
:1000B0000008000201000003040700000000000027
:1000C0000000C20D11241FBECFEFD8E0DEBFCDBFB0
:1000D00011E0A0E0B1E0EAE8F4E202C005900D9280
:1000E000A03BB107D9F725E0A0EBB1E001C01D921C
:1000F000A532B207E1F710E0C2E6D0E004C02197D4
:10010000FE010E94E00EC136D107C9F70E947B09AB
:100110000C9443120C940000CF92DF92EF92FF9266
:100120000F931F93CF93DF936C017A018B01C0E093
:10013000D0E0CE15DF0589F0D8016D918D01D60193
:10014000ED91FC910190F081E02DC6010995892B7C
:1001500011F47E0102C02196ECCFC701DF91CF914F
:100160001F910F91FF90EF90DF90CF900895FC01C9
:10017000218D328D838D948DA901481B590BCA01A5
:100180009170089520916F023091700280917102F8
:1001900090917202281B390B317081E0232B09F4F6
:1001A00080E00895FC01218D328D838D948D281778
:1001B000390779F0A38DB48DAE0FBF1F5F968C9178
:1001C000238D348D2F5F3F4F3170348F238F90E01C
:1001D00008958FEF9FEF0895FC01218D328D838D5F
:1001E000948D2817390739F0838D948DE80FF91F06
:1001F000878D90E008958FEF9FEF0895FC01868D25
:10020000DF01A80FB11DA15EBD4F2C91868D90E03E
:1002100001968F739927868FA689B7892C93A08919
:10022000B1898C9180648C93958D868D981306C0CE
:100230000288F389E02D80818F7D80830895EF927D
:10024000FF920F931F93CF93DF93EC0181E0888F90
:100250009D8D8E8D981305C0E889F989808185FD73
:1002600024C0F62E0D8D10E00F5F1F4F0F73112766
:10027000E02E8E8DE8120CC00FB607FCFACFE8898D
:10028000F989808185FFF5CFCE010E94FE00F1CF74
:100290008D8DFE01E80FF11DE15EFD4FF0820D8FA7
:1002A000EA89FB898081806207C0EE89FF896083CB
:1002B000E889F98980818064808381E090E0DF9122
:1002C000CF911F910F91FF90EF900895CF93DF93FF
:1002D000EC01888D8823C9F0EA89FB89808185FD3E
:1002E00005C0A889B9898C9186FD0FC00FB607FC9F
:1002F000F5CF808185FFF2CFA889B9898C9185FFE0
:10030000EDCFCE010E94FE00E7CFDF91CF9108959F
:1003100080E090E0892B29F00E94C20081110C94AA
:1003200000000895833081F028F4813099F0823004
:10033000A1F008958730A9F08830B9F08430D1F465
:10034000809180008F7D03C0809180008F778093A3
:100350008000089584B58F7702C084B58F7D84BDF9
:1003600008958091B0008F7703C08091B0008F7D99
:100370008093B00008951F93CF93DF93282F30E030
:10038000F901E255FF4F8491F901E656FF4FD491F0
:10039000F901EA57FF4FC491CC23C9F0162F811100
:1003A0000E949201EC2FF0E0EE0FFF1FEE58FF4F7E
:1003B000A591B4918FB7F894111105C09C91ED2FC0
:1003C000E095E92302C0EC91ED2BEC938FBFDF9118
:1003D000CF911F910895CF93DF9390E0FC01E656F3
:1003E000FF4F2491FC01EA57FF4F8491882361F16C
:1003F00090E0880F991FFC01E859FF4FC591D491F7
:10040000FC01EE58FF4FA591B491611109C09FB74F
:10041000F8948881209582238883EC912E230BC049
:10042000623061F49FB7F8943881822F80958323DE
:100430008883EC912E2B2C939FBF06C08FB7F89426
:10044000E8812E2B28838FBFDF91CF9108951F93D2
:10045000CF93DF93182FEB0161E00E94EB0120970F
:1004600011F460E004C0CF3FD10539F461E0812F81
:10047000DF91CF911F910C94BB01E12FF0E0E25589
:10048000FF4FE491E330F9F048F4E130B9F0E230A5
:10049000A1F584B5806284BDC8BD34C0E730E9F001
:1004A000E83019F1E43049F5809180008062809352
:1004B0008000D0938B00C0938A0024C084B58068EC
:1004C00084BDC7BD1FC0809180008068809380007C
:1004D000D0938900C093880015C08091B0008068D7
:1004E0008093B000C093B3000DC08091B0008062D3
:1004F0008093B000C093B40005C0C038D1050CF0A3
:10050000B5CFAFCFDF91CF911F9108958E3008F016
:100510008E508770806480937C0080917A00806424
:1005200080937A0080917A0086FDFCCF80917800DC
:100530002091790090E0922B08953FB7F894809134
:10054000E1019091E201A091E301B091E40126B5AF
:10055000A89B05C02F3F19F00196A11DB11D3FBFFB
:10056000BA2FA92F982F8827820F911DA11DB11D89
:10057000BC01CD0142E0660F771F881F991F4A9585
:10058000D1F708950895CF93DF93DC018C918823F0
:10059000F9F077FD07C06F3F710529F024F06FEF88
:1005A00070E001C060E017966C9317971F96ED916D
:1005B000FC915097309739F0ED01862F0995682FFF
:1005C00070E0888101C070E0DF91CF910C94270228
:1005D000DF91CF9108950F931F93CF93DF93809175
:1005E00005028A3008F042C0C0910502D0E00E94A6
:1005F0009D020091B0011091B1012091B2013091A2
:10060000B301DC01CB01801B910BA20BB30BCC0F10
:10061000DD1FCC0FDD1FCC54DE4F88839983AA8366
:10062000BB83E091050284E0E89FF0011124EC54C3
:10063000FE4F40815181628173818091B001909120
:10064000B101A091B201B091B301840F951FA61F13
:10065000B71F8093B0019093B101A093B201B09302
:10066000B301809105028F5F80930502DF91CF91E6
:100670001F910F9108950E947F112F923F924F92E8
:100680005F926F927F928F929F92AF92BF92CF9222
:10069000DF92EF92FF920F931F93CF93DF9300D0DF
:1006A00000D0CDB7DEB78AE08093050201E010E00C
:1006B000812C912C540120EA36E841E050E0298356
:1006C0003A834B835C83412C512C3201C12CD12CB9
:1006D0007601F801EE0FFF1FEE0FFF1FEC54FE4FE7
:1006E000608171818281938146165706680679067A
:1006F00010F42B013C0129813A814B815C81621706
:1007000073078407950720F469837A838B839C831E
:10071000C60ED71EE81EF91E9B01AC010E94990E61
:100720000E9400109B01AC01C501B4010E94E70EBC
:100730004B015C010F5F1F4F0A30110551F6C701D5
:10074000B60129E030E040E050E00E941212690159
:100750007A0120E030E040E151E4C501B4010E949B
:10076000580F4B015C01A7019601C701B6010E9419
:10077000990E0E9400109B01AC01C501B4010E94BA
:10078000E60E0E942A114B015C0120E030E040E8B7
:100790005FE30E94530F87FF06C0812C912C70E805
:1007A000A72E7FE3B72E89819A81AB81BC81481A3D
:1007B000590A6A0A7B0AC301B2010E9400106983C8
:1007C0007A838B839C8320910501309106014091AF
:1007D000070150910801C501B4010E94B7109B01A7
:1007E000AC0169817A818B819C810E94B2101816BC
:1007F0000CF46CC052C08E179F0794F0AF5F4A2F65
:1008000050E0421753070CF0C8C0440F551FF701C2
:10081000E40FF51F0190F081E02D8E179F0759F727
:1008200020910C0130910D01A10160E070E0ACE07D
:10083000AC9DC001AD9D900D11248E0F9F1F0E9495
:10084000910880E590E09093EA018093E901A98105
:10085000BA81B093EE01A093ED01012E000C220BA2
:10086000330B0093F3011093F4012093F5013093BF
:10087000F60180910E0190910F01A0911001B091AD
:100880001101080F191F2A1F3B1F0093EF0110933E
:10089000F0012093F1013093F201109205020F90C4
:1008A0000F900F900F90DF91CF911F910F91FF90BC
:1008B000EF90DF90CF90BF90AF909F908F907F9000
:1008C0006F905F904F903F902F9008958FE7882E04
:1008D000912CA12CB12CC301B201A50194010E945D
:1008E000121269837A838B839C839B01AC01215014
:1008F000310941095109A0E6B9E00E94FF112EE734
:10090000422E512C612C712CA30192010E94E01106
:10091000DA01C9018C599F4FAF4FBF4F1C01E6E967
:100920002E0E311CC10164E670E00E94A90E8C01FC
:100930000D5F1F4F0E94D211C701B601A50194019E
:100940000E9412129B01AC01215031094109510949
:10095000ACE3B0E00E94FF11A30192010E94E011FC
:10096000DA01C9018496A11DB11D2091F9013091D0
:10097000FA014AE1429FF001439FF00D1124E45E29
:10098000FE4FE080F1806CE070E00E94A90E6B01E8
:10099000D7012D913C91A1E032CFE6E0F0E040CFCD
:1009A0001F920F920FB60F9211242F933F934F93E4
:1009B0005F936F937F938F939F93AF93BF93EF93C7
:1009C000FF9386E592E00E94FE00FF91EF91BF91B8
:1009D000AF919F918F917F916F915F914F913F91D7
:1009E0002F910F900FBE0F901F9018951F920F928E
:1009F0000FB60F9211242F934F935F938F939F9372
:100A0000EF93FF93E0916602F09167028081E0919D
:100A10006C02F0916D0282FD1AC0208180916F02FC
:100A20009091700201969170409171025091720202
:100A30008417950769F0E0916F02F0917002EA5A0D
:100A4000FD4F278F9093700280936F0201C08081C9
:100A5000FF91EF919F918F915F914F912F910F9007
:100A60000FBE0F901F901895CF93DF93282F30E083
:100A7000F901E255FF4F8491F901E656FF4FD491F9
:100A8000F901EA57FF4FC491CC2391F081110E94E4
:100A90009201EC2FF0E0EE0FFF1FE458FF4FA591FD
:100AA000B491EC91ED2381E090E021F480E002C06C
:100AB00080E090E0DF91CF9108952FB7F894609196
:100AC000DD017091DE018091DF019091E0012FBF87
:100AD0000895AF92BF92CF92DF92EF92FF921F9351
:100AE000CF93DF93EC011A8619861B861C861D8620
:100AF0001E868881882309F45DC01F81611709F46F
:100B000059C0A62EB12C4531510568F4B501CE016E
:100B1000DF91CF911F91FF90EF90DF90CF90BF902A
:100B2000AF900C94C3025A8749876887BA0180E066
:100B300090E00E9400106B017C01812F90E08A19E7
:100B40009B0997FF03C0919581959109BC01990F6D
:100B5000880B990B0E9402109B01AC01C701B601E2
:100B60000E94580F6B017C0120E030E0A9010E9437
:100B7000B21020E030E040E05FE387FD05C0C70130
:100B8000B6010E94E70E04C0C701B6010E94E60E3E
:100B90000E94CA0F6431710518F07E836D8304C012
:100BA00084E190E09E838D830E945D0569837A8352
:100BB0008B839C83DF91CF911F91FF90EF90DF900B
:100BC000CF90BF90AF9008954F925F926F927F92B7
:100BD0008F929F92AF92BF92CF92DF92EF92FF924D
:100BE0000F931F93CF93DF93C5EBD4E00DEB14E08D
:100BF000412C512C88EC682E82E4782E8881882341
:100C000009F486C089859A85892B09F481C00E94E0
:100C10005D0529813A817B01E21AF30A8D819E816B
:100C2000E816F90608F474C0B70180E090E00E946D
:100C300000104B015C0169857A8580E090E00E949C
:100C400000109B01AC01C501B4010E94580F4B017B
:100C50005C019B01AC016B857C858D859E850E9426
:100C6000E70E6B877C878D879E8720E030E040E829
:100C70005FE3C501B4010E94B21087FD0DC04B8631
:100C80005C866D867E861A861986F801608170E022
:100C9000CE010E94C3023CC0F8013197C080D12C24
:100CA000F801608170E06C197D09072E000C880B3B
:100CB000990B0E940210A50194010E94B7104B01EC
:100CC0005C0120E030E0A9010E94B21020E030E099
:100CD00040E05FE387FD05C0C501B4010E94E70E57
:100CE00004C0C501B4010E94E60E0E94CA0F6C0D3B
:100CF0007D1DCE010E94C30289859A858E199F09A8
:100D00009A8789870E945D0569837A838B839C8398
:100D100061960F5E1F4FF5E0CB31DF0709F06ECF14
:100D2000DF91CF911F910F91FF90EF90DF90CF90C7
:100D3000BF90AF909F908F907F906F905F904F90FB
:100D400008951F920F920FB60F9211242F933F9385
:100D50008F939F93AF93BF938091DD019091DE01BC
:100D6000A091DF01B091E0013091DC0123E0230F7D
:100D70002D3720F40196A11DB11D05C026E8230FD3
:100D80000296A11DB11D2093DC018093DD0190939B
:100D9000DE01A093DF01B093E0018091E101909129
:100DA000E201A091E301B091E4010196A11DB11D02
:100DB0008093E1019093E201A093E301B093E401F9
:100DC000BF91AF919F918F913F912F910F900FBE47
:100DD0000F901F9018951F920F920FB60F9211242B
:100DE0002F933F934F935F936F937F938F939F9333
:100DF000AF93BF93EF93FF93E0910301F091040150
:100E00000995FF91EF91BF91AF919F918F917F9144
:100E10006F915F914F913F912F910F900FBE0F9067
:100E20001F9018951F920F920FB60F9211242F93B7
:100E30003F934F935F936F937F938F939F93AF9362
:100E4000BF93EF93FF93E0910101F09102010995A7
:100E5000FF91EF91BF91AF919F918F917F916F9192
:100E60005F914F913F912F910F900FBE0F901F9068
:100E70001895FC018081882329F081E02185328545
:100E8000232B09F480E008950F931F93CF93DF93F2
:100E900000D01F92CDB7DEB721E1FC012E9FC0012B
:100EA0002F9F900D11248C010B541B4FC8014983B7
:100EB0005A836B830E94390749815A816B81811162
:100EC0000EC0F8018781811160E0C8010F900F907A
:100ED0000F90DF91CF911F910F910C9469050F90A6
:100EE0000F900F90DF91CF911F910F9108950F9365
:100EF0001F93CF93DF938C019B01EA01A09109011D
:100F0000B0910A010E94BD0E2FEF30E040E050E0AA
:100F10000E94E01181E1809FF001819FF00D11247A
:100F2000AE01622FCF018B549B4FDF91CF911F9168
:100F30000F910C9469050F931F93CF93DF938A0150
:100F4000E901F8949FEF960F9F70692F682B86E553
:100F500092E00E941F01B8016F77772786E592E043
:100F60000E941F01BE016F77772786E592E00E94FD
:100F70001F017894DF91CF911F910F910895EF9207
:100F8000FF920F931F93CF93DF93C6E0D2E005EB60
:100F900014E08C819D8198012F5E3F4F7901892B50
:100FA00099F14E815F816885798580910E019091DC
:100FB0000F01A0911001B091110184179507A607A8
:100FC000B70710F14A815B8160910C0170910D01AE
:100FD00020E030E080E990E00E949B071D821C82A7
:100FE00080910B01813031F441EE50E060E0C801A6
:100FF0000E94690580910B01823031F441EE50E08E
:1010000060E0C7010E9469056096870132E0C6353D
:10101000D30709F0BECFDF91CF911F910F91FF90C1
:10102000EF9008950F931F93CF93DF938091EB017F
:101030009091EC01C091ED01D091EE01C81BD90B4C
:1010400009F46AC040910E0150910F0160911001A6
:10105000709111010091EF011091F0012091F101C7
:101060003091F201041715072607370708F054C01E
:101070000091F3011091F4012091F5013091F601F6
:10108000400F511F621F731F4093EF015093F001F7
:101090006093F1017093F2011C161D0614F4019681
:1010A00001C001979093EC018093EB010091EB015B
:1010B0001091EC014091E9015091EA0160910C011D
:1010C00070910D01980180EB90E00E949B072FEF3B
:1010D00030E0D8010E94C50E2FE730E040E050E03C
:1010E0000E94E0111C161D0664F4CA01B90145E016
:1010F00050E085E090E0DF91CF911F910F910C942B
:10110000770745E050E0622F8AE095E0DF91CF91CC
:101110001F910F910C946905DF91CF911F910F9151
:101120000895CF92DF92EF92FF920F931F93CF9388
:10113000DF936A017B01E6E0F2E0C0E0D0E04481A9
:101140005581452B09F060C0FE0144E0EE0FFF1F02
:101150004A95E1F7EA5FFD4F118210829383828303
:1011600044E650E05583448340910E0150910F01B5
:1011700060911001709111014C0D5D1D6E1D7F1D60
:1011800046835783608771873787268760910C0174
:1011900070910D0124E630E0AC0180E990E00E94FE
:1011A0009B0780910B01813071F405EB14E0C801BD
:1011B0000E9439078823A1F00F5E1F4F85E00A3097
:1011C0001807A9F727C0823029F500E010E00F5E6C
:1011D0001F4FC8018B549B4F0E943907811110C0CB
:1011E0006091090170910A01A601CE01DF91CF91B2
:1011F0001F910F91FF90EF90DF90CF900C947707A5
:101200000434110521F706C021967096C530D1052A
:1012100009F095CFDF91CF911F910F91FF90EF9043
:10122000DF90CF9008958091210580FD04C083FB5D
:10123000882780F9089580E008950F931F93CF9336
:10124000809122050E943405C1E0892B09F4C0E099
:1012500080912105982F977F909321058695817025
:10126000C81779F00E945D0560931B0570931C05FB
:1012700080931D0590931E059091210582E089279A
:101280002FC00E945D0500911B0510911C05209147
:101290001D0530911E05AB01BC01401B510B620BBB
:1012A000730B80911F0590912005A0E0B0E04817D6
:1012B00059076A077B07B0F08091210581708C1770
:1012C00089F00E945D0560931B0570931C05809357
:1012D0001D0590931E059091210581E08927886066
:1012E000809321058091210583FB882780F9CF9188
:1012F0001F910F910895789484B5826084BD84B560
:10130000816084BD85B5826085BD85B5816085BD00
:1013100080916E00816080936E00109281008091B8
:101320008100826080938100809181008160809340
:101330008100809180008160809380008091B10065
:1013400084608093B1008091B00081608093B00090
:1013500080917A00846080937A0080917A00826024
:1013600080937A0080917A00816080937A008091E6
:101370007A00806880937A001092C10060E08EE06D
:101380000E94EB0162E08DE00E94EB018DE0809312
:101390002205109221050E943405892B19F083E063
:1013A000809321050E945D0560931B0570931C05C9
:1013B00080931D0590931E0585E090E09093200595
:1013C00080931F0580E00E948602BC01990F880B64
:1013D000990B611571058105910511F00E94D711D6
:1013E000E0916602F091670282E08083E091620200
:1013F000F09163021082E0916402F09165028FE344
:10140000808310926E02E0916A02F0916B0286E096
:101410008083E0916802F09169028081806180831D
:10142000E0916802F0916902808188608083E09198
:101430006802F0916902808180688083E09168028F
:10144000F091690280818F7D80831092EC0110926F
:10145000EB0180910E0190910F01A0911001B091CC
:1014600011014091E5015091E6016091E701709111
:10147000E801481759076A077B0708F077C0805FC3
:10148000984DAF4FBF4F8093E5019093E601A09335
:10149000E701B093E8018EE480937C000E949D02F6
:1014A0006B017C01A2E04A2E512C612C712C0E9410
:1014B0009D02DC01CB018C199D09AE09BF09883E54
:1014C0009340A105B10598F328EEC20E23E0D21E89
:1014D000E11CF11C4A9445284628472829F0412C54
:1014E000512C32014394E3CF80917A008064809341
:1014F0007A0080917A0086FDFCCF8091780020915F
:10150000790030E0322F2227A901330F660B770BC9
:101510009A01AB01282B60E070E381E190E00E942A
:10152000E011283B3B404105510504F58091000145
:101530008823E1F0C5EBD4E0C12CD12C78ECE72E68
:1015400072E4F72ECB86DC86ED86FE861A86198637
:1015500060E070E0CE010E94C302619625E0CB31CD
:10156000D20781F710920B011092000180910B01BC
:10157000811120C08BEE92E09093020180930101D3
:1015800080916900836080936900E89AC12CD12C16
:1015900038ECE32E32E4F32EAA24A394B12C442495
:1015A0004A9453E0552E612C712CC1E1D1E062E0E8
:1015B000962E56C0CBEED0E08E01025F1B4F46E95F
:1015C00050E068ECC8010E946905C8010E94390713
:1015D000882319F00E94E405F8CFAE0160E0C8014D
:1015E0000E946905C8010E943907882319F00E94EA
:1015F000E405F8CF6197C639D105F1F6BBCFF80104
:10160000C386D486E586F6861286118660E070E091
:10161000C8010E94C3020F5E1F4FF5E00B311F0788
:1016200071F78091030290910402009771F1019784
:1016300009F444C0809105028A3010F00E943D03F5
:101640000E94BF070E9412080E94E40580910302D5
:1016500090910402181619060CF4EDC10E9488013D
:101660000E945D0560930E0170930F01809310013D
:10167000909311010E941D090E9413098823D1F241
:1016800010920B0105EB14E0BACF109200021092F9
:10169000FF01B0920402A092030280910E0190918A
:1016A0000F01A0911001B09111018093FB01909363
:1016B000FC01A093FD01B093FE01BCCF809101021B
:1016C000909102028130910509F463C034F4892BB2
:1016D00009F0B0CF90920B011DC08230910509F442
:1016E000FCC0039709F458C1A5CF0E94BF070E9410
:1016F00012080E941D090E941309182F0E945D05FF
:1017000060930E0170930F0180931001909311016B
:10171000111119C18EE00E948602BC01990F880B3D
:10172000990B0E94021020E030E040E85FE30E9445
:10173000E60E26E636E646E050E40E94B71020E0CA
:1017400030EC4FE754E40E94580F2BE734E14EECA5
:101750005FE30E94E70E609305017093060180939A
:101760000701909308016091090170910A014FEA05
:1017700050E080910102909102020E9444070E9471
:10178000E405809105028A3008F4AFCF0E943D0342
:10179000ACCF00E010E08EE00E948602092E000C23
:1017A000AA0BBB0B9C01AD01215031094109510924
:1017B000A5E0B0E00E94FF11A30192010E94E01198
:1017C0003093FA012093F9016091090170910A01A7
:1017D0004FEA50E080910102909102020E9444077A
:1017E0006091090170910A0147E550E08091F9018B
:1017F0009091FA010E9444078091F9019091FA01B9
:101800008017910791F0C09FC001C19F900D1124D6
:101810008B549B4FFC01C386D486E586F6861286E0
:10182000118660E070E00E94C3020091F9011091FE
:10183000FA010E94E405809105028A3010F00E94AE
:101840003D030E94BF070E9412080E941D090E94CA
:101850001309882E0E945D0560930E0170930F019D
:101860008093100190931101882009F494CF109275
:10187000040210920302D0930B012091FF013091DA
:101880000002C29FC001C39F900D11248B549B4F37
:10189000FC01C386D486E586F6861286118660E052
:1018A00070E00E94C3022091F9013091FA01B0C0AA
:1018B0000E94BF070E9412080E941D090E9413097E
:1018C000182F0E945D0560930E0170930F018093A5
:1018D000100190931101111136C08EE00E94860212
:1018E000092E000CAA0BBB0B0197A109B109BC0181
:1018F000CD0124E0660F771F881F991F2A95D1F725
:10190000A30192010E94E011DA01C9010196A11D13
:10191000B11D90930D0180930C01609109017091AC
:101920000A0147E550E080910102909102020E9475
:1019300044070E94E405809105028A3008F4B8CF7C
:101940000E943D03B5CF10920402109203025AC0C8
:101950004AE350E061E070E0C9010E9444070E9440
:10196000E405809105028A3010F00E943D030E9438
:10197000BF070E9412080E941D090E941309182F18
:101980000E945D0560930E0170930F01809310011A
:101990009093110111112CC08EE00E948602092E35
:1019A000000CAA0BBB0B9C01AD0121503109410970
:1019B0005109AEEFB0E00E94FF11A30192010E9415
:1019C000E011CA01B9016F5F7F4F8F4F9F4F709336
:1019D0000A016093090120910102309102026230F4
:1019E0007105810591050CF4B3CF4FEA50E0B4CFF7
:1019F00010920402109203028091090190910A0151
:101A0000029714F0D0930B012091FF013091000256
:101A1000C29FC001C39F900D11248B549B4FFC01AA
:101A2000C386D486E586F6861286118660E070E06D
:101A30000E94C302FFCD8EE00E948602092E000C98
:101A4000AA0BBB0B9C01AD01215031094109510981
:101A5000A5E0B0E00E94FF11A30192010E94E011F5
:101A600030930202209301026091FF017091000205
:101A70006217730751F1C69FC001C79F900D1124D3
:101A80008B549B4FFC01C386D486E586F68612866E
:101A9000118660E070E00E94C30280910102909183
:101AA0000202909300028093FF0180910E019091B9
:101AB0000F01A0911001B09111018093FB0190934F
:101AC000FC01A093FD01B093FE018091030290916F
:101AD00004028130910559F00297B9F410920B017C
:101AE0006091090170910A014FEA50E008C010921C
:101AF0000B016091090170910A014EE551E080915E
:101B00000102909102020E94440780910E0190917F
:101B10000F01A0911001B09111014091FB01509172
:101B2000FC016091FD017091FE01841B950BA60BD9
:101B3000B70B89389341A105B10508F48FCD1092F8
:101B40000402109203028091090190910A01029708
:101B500014F0D0930B012091FF0130910002C29F3D
:101B6000C001C39F900D11248B549B4FFC01C38671
:101B7000D486E586F6861286118660E070E00E94C3
:101B8000C3026CCDE6E5F2E01382128288EE93E0A8
:101B9000A0E0B0E084839583A683B78383EA91E0D5
:101BA0009183808385EC90E09587848784EC90E036
:101BB0009787868780EC90E0918B808B81EC90E01A
:101BC000938B828B82EC90E0958B848B86EC90E0FB
:101BD000978B868B128E118E148E138E158E168E09
:101BE00084E690E09093240580932305EBE1F5E0F3
:101BF00010821182128213828AE090E0958384839E
:101C000016821782E5EBF4E083E08083178210866A
:101C10001182128213821482168215821286118614
:101C20001386148615861686108A178685E0818BA2
:101C3000108E118E128A138A148A158A178A168AB0
:101C4000138E128E148E158E168E178E11A210A260
:101C500086E082A311A612A613A214A215A216A2B0
:101C600010A617A214A613A615A616A617A610AAA4
:101C700012AA11AA89E083AB12AE13AE14AA15AA58
:101C800016AA17AA11AE10AE15AE14AE1092F30438
:101C90001092F4041092F5041092F6041092F804D5
:101CA0001092F7048AE08093F904109200051092D4
:101CB00001051092FA041092FB041092FC04109299
:101CC000FD041092FF041092FE041092030510927E
:101CD0000205109204051092050510920605109257
:101CE000070510920905109208058BE080930A05FC
:101CF000109211051092120510920B0510920C050E
:101D000010920D0510920E051092100510920F05FD
:101D100010921405109213051092150510921605D5
:101D2000109217051092180510921A0510921905B5
:101D30000895DB018F939F930E94FF11BF91AF9194
:101D4000A29F800D911DA39F900DB29F900D112415
:101D5000089597FB072E16F4009407D077FD09D05D
:101D60000E94CC0E07FC05D03EF4909581959F4FC4
:101D70000895709561957F4F08950E943412332322
:101D800012F48A1B9B0B0C94C70E0E943412B7FFEF
:101D90000895821B930B0895AA1BBB1B51E107C03A
:101DA000AA1FBB1FA617B70710F0A61BB70B881FEB
:101DB000991F5A95A9F780959095BC01CD0108957A
:101DC000EE0FFF1F0590F491E02D09945058BB27AA
:101DD000AA270E94FE0E0C9478100E946A1038F018
:101DE0000E94711020F039F49F3F19F426F40C94EE
:101DF00067100EF4E095E7FB0C946110E92F0E9448
:101E0000891058F3BA17620773078407950720F003
:101E100079F4A6F50C94AB100EF4E0950B2EBA2FC6
:101E2000A02D0B01B90190010C01CA01A0011124E0
:101E3000FF27591B99F0593F50F4503E68F11A168C
:101E4000F040A22F232F342F4427585FF3CF46951D
:101E500037952795A795F0405395C9F77EF41F163F
:101E6000BA0B620B730B840BBAF09150A1F0FF0F09
:101E7000BB1F661F771F881FC2F70EC0BA0F621FF5
:101E8000731F841F48F4879577956795B795F795E5
:101E90009E3F08F0B0CF9395880F08F09927EE0F7A
:101EA0009795879508950E943D1008F481E0089564
:101EB0000E946C0F0C9478100E94711058F00E94D0
:101EC0006A1040F029F45F3F29F00C946110511121
:101ED0000C94AC100C9467100E94891068F399233D
:101EE000B1F3552391F3951B550BBB27AA27621716
:101EF0007307840738F09F5F5F4F220F331F441F23
:101F0000AA1FA9F335D00E2E3AF0E0E832D0915056
:101F10005040E695001CCAF72BD0FE2F29D0660F43
:101F2000771F881FBB1F261737074807AB07B0E886
:101F300009F0BB0B802DBF01FF2793585F4F3AF08C
:101F40009E3F510578F00C9461100C94AC105F3FEB
:101F5000E4F3983ED4F3869577956795B795F79512
:101F60009F5FC9F7880F911D9695879597F90895FA
:101F7000E1E0660F771F881FBB1F62177307840796
:101F8000BA0720F0621B730B840BBA0BEE1F88F7A5
:101F9000E09508950E94D10F6894B1110C94AC1093
:101FA00008950E94911088F09F5798F0B92F9927B3
:101FB000B751B0F0E1F0660F771F881F991F1AF034
:101FC000BA95C9F714C0B13091F00E94AB10B1E0DE
:101FD00008950C94AB10672F782F8827B85F39F0DD
:101FE000B93FCCF3869577956795B395D9F73EF4CD
:101FF00090958095709561957F4F8F4F9F4F089575
:10200000E89409C097FB3EF4909580957095619592
:102010007F4F8F4F9F4F9923A9F0F92F96E9BB2748
:102020009395F695879577956795B795F111F8CFC4
:10203000FAF4BB0F11F460FF1BC06F5F7F4F8F4F2F
:102040009F4F16C0882311F096E911C0772321F025
:102050009EE8872F762F05C0662371F096E8862FBD
:1020600070E060E02AF09A95660F771F881FDAF714
:10207000880F9695879597F90895990F0008550F41
:10208000AA0BE0E8FEEF16161706E807F907C0F0FE
:1020900012161306E407F50798F0621B730B840B06
:1020A000950B39F40A2661F0232B242B252B21F4E0
:1020B00008950A2609F4A140A6958FEF811D811D80
:1020C000089597F99F6780E870E060E008959FEFBA
:1020D00080EC089500240A941616170618060906BF
:1020E000089500240A94121613061406050608958E
:1020F000092E0394000C11F4882352F0BB0F40F416
:10210000BF2B11F460FF04C06F5F7F4F8F4F9F4F55
:10211000089557FD9058440F551F59F05F3F71F0D7
:102120004795880F97FB991F61F09F3F79F087953E
:102130000895121613061406551FF2CF4695F1DFC7
:1021400008C0161617061806991FF1CF8695710557
:10215000610508940895E894BB2766277727CB018B
:1021600097F908950E943D1008F48FEF08950E949A
:10217000CA100C9478100E946A1038F00E947110F6
:1021800020F0952311F00C9461100C946710112429
:102190000C94AC100E94891070F3959FC1F3950FB9
:1021A00050E0551F629FF001729FBB27F00DB11DDB
:1021B000639FAA27F00DB11DAA1F649F6627B00D6B
:1021C000A11D661F829F2227B00DA11D621F739F54
:1021D000B00DA11D621F839FA00D611D221F749F62
:1021E0003327A00D611D231F849F600D211D822FA9
:1021F000762F6A2F11249F5750409AF0F1F08823D0
:102200004AF0EE0FFF1FBB1F661F771F881F9150FC
:102210005040A9F79E3F510580F00C9461100C943A
:10222000AC105F3FE4F3983ED4F3869577956795BD
:10223000B795F795E7959F5FC1F7FE2B880F911D26
:102240009695879597F9089519F416F40C946710EC
:102250000C946A110E949110B8F39923C9F3B6F354
:102260009F57550B87FF0E9478110024A0E640EA93
:10227000900180585695979528F4805C660F771FDB
:10228000881F20F026173707480730F4621B730BAE
:10229000840B202931294A2BA695179407942025D1
:1022A00031254A2758F7660F771F881F20F0261719
:1022B0003707480730F4620B730B840B200D311D78
:1022C000411DA09581F7B901842F9158880F9695EB
:1022D000879508959F3F31F0915020F48795779529
:1022E0006795B795880F911D9695879597F90895ED
:1022F00091505040660F771F881FD2F7089581E0F4
:1023000090E0F8940C9443128F929F92AF92BF92F8
:10231000CF92DF92EF92FF92CF93DF93EC0168812F
:1023200079818A819B81611571058105910521F46F
:1023300064E279ED8BE597E02DE133EF41E050E089
:102340000E94E01149015A019B01AC01A7EAB1E4E6
:102350000E94FF116B017C01ACEEB4EFA50194016A
:102360000E940D12DC01CB018C0D9D1DAE1DBF1D09
:10237000B7FF03C00197A109B04888839983AA8356
:10238000BB83BC01CD019F77DF91CF91FF90EF9090
:10239000DF90CF90BF90AF909F908F9008950E9454
:1023A0008411089588E191E00E948411089560935A
:1023B00018017093190180931A0190931B010895DD
:1023C000052E97FB1EF400940E94F71157FD07D0CD
:1023D0000E94121207FC03D04EF40C94F711509592
:1023E0004095309521953F4F4F4F5F4F0895909501
:1023F0008095709561957F4F8F4F9F4F08950E94F4
:102400003412A59F900DB49F900DA49F800D911D37
:1024100011240895B7FF0C94FF110E94FF11821B35
:10242000930B0895A1E21A2EAA1BBB1BFD010DC040
:10243000AA1FBB1FEE1FFF1FA217B307E407F50774
:1024400020F0A21BB30BE40BF50B661F771F881F50
:10245000991F1A9469F760957095809590959B01E6
:10246000AC01BD01CF010895A29FB001B39FC0018F
:10247000A39F700D811D1124911DB29F700D811DB0
:0A2480001124911D0895F894FFCF78
:10248A0001C202C2029A99D93FBE000101000100AD
:10249A000000000025058000010000000C0001007A
:1024AA0002000300040005000600070008000900F6
:1024BA000A000B000C0007000100030005000600DB
:1024CA0008000A000C0000000000000000000000E4
:1024DA0007000100030004000600080009000B00C1
:1024EA0000000000000000000000070001000200D8
:1024FA0002000500060009000B00000000000000B1
:10250A0000000000070001000300040006000800A4
:10251A0009000B000000000000000000000000009D
:10252A000000001F018C00B700D200EC0066010019
:00000001FF
