:100000000C9462000C9461040C943A040C948A00E1
:100010000C948A000C948A000C948A000C948A0038
:100020000C948A000C948A000C948A000C948A0028
:100030000C948A000C948A000C948A000C948A0018
:100040000C94F0030C948A000C9486010C946001CB
:100050000C948A000C948A000C948A000C948A00F8
:100060000C948A000C948A000000000024002700F1
:100070002A0000000000250028002B0000000000DE
:1000800023002600290004040404040404040202DA
:100090000202020203030303030301020408102007
:1000A0004080010204081020010204081020000012
:1000B0000008000201000003040700000000000027
:1000C0000000C80E11241FBECFEFD8E0DEBFCDBFA9
:1000D00011E0A0E0B1E0E2EBF6E202C005900D9283
:1000E000AC3AB107D9F724E0ACEAB1E001C01D9207
:1000F000AD31B207E1F710E0C2E6D0E004C02197CD
:10010000FE010E944C13C136D107C9F70E942D0A87
:100110000C9457130C940000CF92DF92EF92FF9251
:100120000F931F93CF93DF936C017A018B01C0E093
:10013000D0E0CE15DF0589F0D8016D918D01D60193
:10014000ED91FC910190F081E02DC6010995892B7C
:1001500011F47E0102C02196ECCFC701DF91CF914F
:100160001F910F91FF90EF90DF90CF900895089529
:1001700080E090E00895FC01538D448D252F30E000
:10018000842F90E0821B930B541710F0CF960895A4
:1001900001970895FC01918D828D981759F0828DF9
:1001A000DF01A80FB11D5D968C91928D9F5F928F9C
:1001B00090E008958FEF9FEF0895FC01918D828D5F
:1001C000981731F0828DE80FF11D858D90E008952C
:1001D0008FEF9FEF08950E94521382E592E00E94F4
:1001E000B70121E0892B09F420E0822F0895EF92D6
:1001F000FF920F931F93CF93DF93EC0181E0888FE1
:100200009B8D8C8D981305C0E889F989808185FDC7
:1002100024C0F62E0B8D10E00F5F1F4F0F731127B8
:10022000E02E8C8DE8120CC00FB607FCFACFE889DF
:10023000F989808185FFF5CFCE010E947E02F1CF42
:100240008B8DFE01E80FF11DE35EFE4FF0820B8FF8
:10025000EA89FB898081806207C0EE89FF8960831B
:10026000E889F98980818064808381E090E0DF9172
:10027000CF911F910F91FF90EF900895CF93DF934F
:10028000EC01888D8823C9F0EA89FB89808185FD8E
:1002900005C0A889B9898C9186FD0FC00FB607FCEF
:1002A000F5CF808185FFF2CFA889B9898C9185FF30
:1002B000EDCFCE010E947E02E7CFDF91CF9108956E
:1002C0001F920F920FB60F9211242F933F934F93CB
:1002D0005F936F937F938F939F93AF93BF93EF93AE
:1002E000FF9382E592E00E947E02FF91EF91BF9121
:1002F000AF919F918F917F916F915F914F913F91BE
:100300002F910F900FBE0F901F9018951F920F9274
:100310000FB60F9211242F938F939F93EF93FF9318
:10032000E0916202F09163028081E0916802F091B5
:10033000690282FD11C0908180916B028F5F2091D4
:100340006C02821751F0E0916B02F0E0EE5AFD4F23
:10035000958F80936B0201C08081FF91EF919F91F7
:100360008F912F910F900FBE0F901F901895FC0149
:10037000918D828D981B892F90E0089580E090E008
:10038000892B29F00E94ED0081110C940000089542
:10039000833081F028F4813099F08230A1F0089503
:1003A0008730A9F08830B9F08430D1F48091800092
:1003B0008F7D03C0809180008F77809380000895A7
:1003C00084B58F7702C084B58F7D84BD08958091F8
:1003D000B0008F7703C08091B0008F7D8093B00014
:1003E00008953FB7F8948091FE019091FF01A0918C
:1003F0000002B091010226B5A89B05C02F3F19F05D
:100400000196A11DB11D3FBFBA2FA92F982F882794
:10041000820F911DA11DB11DBC01CD0142E0660FEF
:10042000771F881F991F4A95D1F7089508950F9354
:100430001F93CF93DF938091BE018A3008F042C0B2
:10044000C091BE01D0E00E94F1010091CD01109158
:10045000CE012091CF013091D001DC01CB01801B76
:10046000910BA20BB30BCC0FDD1FCC0FDD1FCF52B6
:10047000DE4F88839983AA83BB83E091BE0184E029
:10048000E89FF0011124EF52FE4F408151816281BB
:1004900073818091CD019091CE01A091CF01B09157
:1004A000D001840F951FA61FB71F8093CD01909395
:1004B000CE01A093CF01B093D0018091BE018F5F98
:1004C0008093BE01DF91CF911F910F9108950F93FB
:1004D0001F93CF93DF93EC018B01FB0160810E949E
:1004E000FB0FF8016181CE0101960E94FB0F82E0B3
:1004F00090E0DF91CF911F910F910895FC01848DC1
:10050000DF01A80FB11DA35EBE4F2C91848D90E03A
:1005100001968F739927848FA689B7892C93A08918
:10052000B1898C9180648C93938D848D981306C0CF
:100530000288F389E02D80818F7D80830895CF9399
:10054000DF93282F30E0F901E255FF4F8491F90144
:10055000E656FF4FD491F901EA57FF4FC491CC23DF
:1005600091F081110E94C801EC2FF0E0EE0FFF1F07
:10057000E458FF4FA591B491EC91ED2381E090E018
:1005800021F480E002C080E090E0DF91CF910895F7
:100590001F93CF93DF93282F30E0F901E255FF4FEF
:1005A0008491F901E656FF4FD491F901EA57FF4FC4
:1005B000C491CC23C9F0162F81110E94C801EC2FE1
:1005C000F0E0EE0FFF1FEE58FF4FA591B4918FB7EB
:1005D000F894111105C09C91ED2FE095E92302C01C
:1005E000EC91ED2BEC938FBFDF91CF911F9108958C
:1005F000CF93DF9390E0FC01E656FF4F2491FC017E
:10060000EA57FF4F8491882361F190E0880F991F8A
:10061000FC01E859FF4FC591D491FC01EE58FF4F02
:10062000A591B491611109C09FB7F8948881209574
:1006300082238883EC912E230BC0623061F49FB734
:10064000F8943881822F809583238883EC912E2B18
:100650002C939FBF06C08FB7F894E8812E2B288378
:100660008FBFDF91CF9108951F93CF93DF93182F02
:10067000EB0161E00E94F802209711F460E004C0F1
:10068000CF3FD10539F461E0812FDF91CF911F91E8
:100690000C94C802E12FF0E0E255FF4FE491E33003
:1006A000F9F048F4E130B9F0E230A1F584B58062A8
:1006B00084BDC8BD34C0E730E9F0E83019F1E4305A
:1006C00049F580918000806280938000D0938B00F8
:1006D000C0938A0024C084B5806884BDC7BD1FC094
:1006E00080918000806880938000D0938900C093BF
:1006F000880015C08091B00080688093B000C093DE
:10070000B3000DC08091B00080628093B000C093B0
:10071000B40005C0C038D1050CF0B5CFAFCFDF9124
:10072000CF911F9108958E3008F08E5087708064AD
:1007300080937C0080917A00806480937A0080911D
:100740007A0086FDFCCF809178002091790090E0BE
:10075000922B08958F929F92AF92BF92CF92DF9289
:10076000EF92FF926B017C010E94F1014B015C0151
:10077000C114D104E104F104F1F00E94F101DC01A3
:10078000CB0188199909AA09BB09883E9340A105A4
:10079000B10570F321E0C21AD108E108F10888EE32
:1007A000880E83E0981EA11CB11CC114D104E10481
:1007B000F10419F7DDCFFF90EF90DF90CF90BF905D
:1007C000AF909F908F9008952FB7F8946091FA01A1
:1007D0007091FB018091FC019091FD012FBF089564
:1007E0001F920F920FB60F9211242F933F938F9366
:1007F0009F93AF93BF938091FA019091FB01A091D9
:10080000FC01B091FD013091F90123E0230F2D3758
:1008100020F40196A11DB11D05C026E8230F029604
:10082000A11DB11D2093F9018093FA019093FB0162
:10083000A093FC01B093FD018091FE019091FF0116
:10084000A0910002B09101020196A11DB11D8093FB
:10085000FE019093FF01A0930002B0930102BF91AB
:10086000AF919F918F913F912F910F900FBE0F905D
:100870001F9018951F920F920FB60F9211242F936D
:100880003F934F935F936F937F938F939F93AF9318
:10089000BF93EF93FF93E0910301F0910401099559
:1008A000FF91EF91BF91AF919F918F917F916F9148
:1008B0005F914F913F912F910F900FBE0F901F901E
:1008C00018951F920F920FB60F9211242F933F93FA
:1008D0004F935F936F937F938F939F93AF93BF9348
:1008E000EF93FF93E0910101F09102010995FF91CF
:1008F000EF91BF91AF919F918F917F916F915F9198
:100900004F913F912F910F900FBE0F901F90189510
:10091000FC018081882329F081E021853285232B09
:1009200009F480E00895CF93DF93DC018C91882354
:10093000F9F077FD07C06F3F710529F024F06FEFE4
:1009400070E001C060E017966C9317971F96ED91C9
:10095000FC915097309739F0ED01862F0995682F5B
:1009600070E0888101C070E0DF91CF910C94340376
:10097000DF91CF910895AF92BF92CF92DF92EF9225
:10098000FF921F93CF93DF93EC011A8619861B8683
:100990001C861D861E868881882309F45DC01F8100
:1009A000611709F459C0A62EB12C4531510568F4E0
:1009B000B501CE01DF91CF911F91FF90EF90DF90B5
:1009C000CF90BF90AF900C9493045A874987688763
:1009D000BA0180E090E00E9486116B017C01812FBA
:1009E00090E08A199B0997FF03C091958195910921
:1009F000BC01990F880B990B0E9488119B01AC01D7
:100A0000C701B6010E94DE106B017C0120E030E0DE
:100A1000A9010E94381220E030E040E05FE387FD4A
:100A200005C0C701B6010E946D1004C0C701B60120
:100A30000E946C100E9450116431710518F07E8381
:100A40006D8304C084E190E09E838D830E94E40363
:100A500069837A838B839C83DF91CF911F91FF9071
:100A6000EF90DF90CF90BF90AF9008950F931F93BA
:100A7000CF93DF938C01EB010E94F30F8883C801B1
:100A800001960E94F30F898382E090E0DF91CF917D
:100A90001F910F9108952F923F924F925F926F9204
:100AA0007F928F929F92AF92BF92CF92DF92EF92FE
:100AB000FF920F931F93CF93DF9300D000D0CDB759
:100AC000DEB78AE08093BE0101E010E0812C912C1A
:100AD000540120EA36E841E050E029833A834B8311
:100AE0005C83412C512C3201C12CD12C7601F801B0
:100AF000EE0FFF1FEE0FFF1FEF52FE4F608171815F
:100B000082819381461657066806790610F42B01F8
:100B10003C0129813A814B815C816217730784070C
:100B2000950720F469837A838B839C83C60ED71E36
:100B3000E81EF91E9B01AC010E9405130E9486115C
:100B40009B01AC01C501B4010E946D104B015C0119
:100B50000F5F1F4F0A30110551F6C701B60129E09A
:100B600030E040E050E00E943B1069017A0120E053
:100B700030E040E151E4C501B4010E94DE104B01B8
:100B80005C01A7019601C701B6010E9405130E94EE
:100B900086119B01AC01C501B4010E946C100E943A
:100BA000B0124B015C0120E030E040E85FE30E94BE
:100BB000D91087FF06C0812C912C70E8A72E7FE307
:100BC000B72E89819A81AB81BC81481A590A6A0A79
:100BD0007B0AC301B2010E94861169837A838B83E9
:100BE0009C832091050130910601409107015091AD
:100BF0000801C501B4010E943D129B01AC0169814D
:100C00007A818B819C810E94381218160CF46CC07A
:100C100052C08E179F0794F0AF5F4A2F50E04217E3
:100C200053070CF0C8C0440F551FF701E40FF51F20
:100C30000190F081E02D8E179F0759F720910C014C
:100C400030910D01A10160E070E0ACE0AC9DC0010D
:100C5000AD9D900D11248E0F9F1F0E94430980E5CA
:100C600090E09093AD018093AC01A981BA81B093DB
:100C7000B101A093B001012E000C220B330B0093A5
:100C8000B6011093B7012093B8013093B901809158
:100C90000E0190910F01A0911001B0911101080F68
:100CA000191F2A1F3B1F0093B2011093B301209319
:100CB000B4013093B5011092BE010F900F900F90C8
:100CC0000F90DF91CF911F910F91FF90EF90DF90E8
:100CD000CF90BF90AF909F908F907F906F905F90DC
:100CE0004F903F902F9008958FE7882E912CA12C44
:100CF000B12CC301B201A50194010E943B1069838C
:100D00007A838B839C839B01AC012150310941097B
:100D10005109A0E6B9E00E9428102EE7422E512C7E
:100D2000612C712CA30192010E940910DA01C90102
:100D30008C599F4FAF4FBF4F1C01E6E92E0E311C5F
:100D4000C10164E670E00E9415138C010D5F1F4F16
:100D50000E94E50FC701B601A50194010E943B1056
:100D60009B01AC012150310941095109ACE3B0E0CC
:100D70000E942810A30192010E940910DA01C90102
:100D80008496A11DB11D2091BC013091BD014AE1A5
:100D9000429FF001439FF00D1124EA5EFE4FE08078
:100DA000F1806CE070E00E9415136B01D7012D916A
:100DB0003C91A1E032CFE6E0F0E040CF0F931F93EB
:100DC000CF93DF9300D01F92CDB7DEB721E1FC01B6
:100DD0002E9FC0012F9F900D11248C0101551C4F97
:100DE000C80149835A836B830E94880449815A81D0
:100DF0006B8181110EC0F8018781811160E0C8010B
:100E00000F900F900F90DF91CF911F910F910C9445
:100E1000BB040F900F900F90DF91CF911F910F9116
:100E200008954F925F926F927F928F929F92AF92AE
:100E3000BF92CF92DF92EF92FF920F931F93CF93C7
:100E4000DF93CFEAD3E007EB13E0412C512C88EC81
:100E5000682E82E4782E8881882309F486C08985EB
:100E60009A85892B09F481C00E94E40329813A8183
:100E70007B01E21AF30A8D819E81E816F90608F4D7
:100E800074C0B70180E090E00E9486114B015C01C4
:100E900069857A8580E090E00E9486119B01AC0113
:100EA000C501B4010E94DE104B015C019B01AC0145
:100EB0006B857C858D859E850E946D106B877C87F8
:100EC0008D879E8720E030E040E85FE3C501B401F4
:100ED0000E94381287FD0DC04B865C866D867E862B
:100EE0001A861986F801608170E0CE010E94930491
:100EF0003CC0F8013197C080D12CF801608170E0CE
:100F00006C197D09072E000C880B990B0E94881123
:100F1000A50194010E943D124B015C0120E030E0EC
:100F2000A9010E94381220E030E040E05FE387FD35
:100F300005C0C501B4010E946D1004C0C501B40113
:100F40000E946C100E9450116C0D7D1DCE010E94FC
:100F5000930489859A858E199F099A8789870E94AB
:100F6000E40369837A838B839C8361960F5E1F4FB2
:100F7000F4E0C531DF0709F06ECFDF91CF911F910B
:100F80000F91FF90EF90DF90CF90BF90AF909F9028
:100F90008F907F906F905F904F9008950F931F9365
:100FA000CF93DF938C019B01EA01A0910901B091DD
:100FB0000A010E9429132FEF30E040E050E00E9428
:100FC000091081E1809FF001819FF00D1124AE0195
:100FD000622FCF0181559C4FDF91CF911F910F91CF
:100FE0000C94BB040F931F93CF93DF938A01E90105
:100FF000F8949FEF960F9F70692F682B82E592E01F
:101000000E94F700B8016F77772782E592E00E948F
:10101000F700BE016F77772782E592E00E94F70024
:101020007894DF91CF911F910F910895EF92FF92E5
:101030000F931F93CF93DF93C2E0D2E00FEA13E048
:101040008C819D8198012F5E3F4F7901892B99F109
:101050004E815F816885798580910E0190910F01A5
:10106000A0911001B091110184179507A607B70749
:1010700010F14A815B8160910C0170910D0120E0BB
:1010800030E080E990E00E94F2071D821C8280918E
:101090000B01813031F441EE50E060E0C8010E9464
:1010A000BB0480910B01823031F441EE50E060E0EE
:1010B000C7010E94BB046096870132E0C235D307A6
:1010C00009F0BECFDF91CF911F910F91FF90EF906C
:1010D00008950F931F93CF93DF938091AE0190916A
:1010E000AF01C091B001D091B101C81BD90B09F477
:1010F0006CC040910E0150910F01609110017091F0
:1011000011010091B2011091B3012091B40130910D
:10111000B501041715072607370708F056C00091D8
:10112000B6011091B7012091B8013091B901400F7B
:10113000511F621F731F4093B2015093B30160931C
:10114000B4017093B5011C161D0614F4019601C07C
:1011500001979093AF018093AE012091AE01309141
:10116000AF014091AC015091AD0160910C017091C3
:101170000D0180EB90E00E94F207A091AE01B091CA
:10118000AF012FEF30E00E9431132FE730E040E055
:1011900050E00E9409101C161D0664F4CA01B90132
:1011A00045E050E085E090E0DF91CF911F910F91F5
:1011B0000C94CE0745E050E0622F84E094E0DF918C
:1011C000CF911F910F910C94BB04DF91CF911F9190
:1011D0000F910895EF92FF920F931F93CF93DF9398
:1011E00000D000D0CDB7DEB71A821982BE016F5F82
:1011F0007F4F81E090E00E9467028EEB90E09A833F
:101200008983BE016F5F7F4F82E090E00E9467029A
:1012100081E090E09A838983BE016F5F7F4F83E016
:1012200090E00E9467028AE999E9A9EDBFE389830A
:101230009A83AB83BC838E010F5F1F4FE12CF12C8F
:10124000F80161918F01C70104960E94FB0FFFEF27
:10125000EF1AFF0A84E0E816F10491F761E080E0FC
:1012600090E00E94FB0F60E081E090E00E94FB0FA5
:101270000F900F900F900F90DF91CF911F910F91D2
:10128000FF90EF900895CF92DF92EF92FF920F932D
:101290001F93CF93DF936A017B01E2E0F2E0C0E0AD
:1012A000D0E044815581452B09F060C0FE0144E047
:1012B000EE0FFF1F4A95E1F7EE5FFD4F118210829E
:1012C0009383828344E650E05583448340910E012A
:1012D00050910F0160911001709111014C0D5D1D35
:1012E0006E1D7F1D468357836087718737872687EA
:1012F00060910C0170910D0124E630E0AC0180E9B1
:1013000090E00E94F20780910B01813071F40FEAA6
:1013100013E0C8010E9488048823A1F00F5E1F4FCC
:1013200084E004301807A9F727C0823029F500E0CF
:1013300010E00F5E1F4FC80181559C4F0E9488042A
:10134000811110C06091090170910A01A601CE01BE
:10135000DF91CF911F910F91FF90EF90DF90CF9091
:101360000C94CE070434110521F706C0219670961F
:10137000C530D10509F095CFDF91CF911F910F9125
:10138000FF90EF90DF90CF90089580911B0480FD37
:1013900004C083FB882780F9089580E008950F93A7
:1013A0001F93CF9380911C040E949F02C1E0892B60
:1013B00009F4C0E080911B04982F977F90931B0441
:1013C00086958170C81779F00E94E4036093150434
:1013D00070931604809317049093180490911B0443
:1013E00082E089272FC00E94E40300911504109128
:1013F00016042091170430911804AB01BC01401B66
:10140000510B620B730B8091190490911A04A0E0A8
:10141000B0E0481759076A077B07B0F080911B04BA
:1014200081708C1789F00E94E40360931504709317
:101430001604809317049093180490911B0481E084
:101440008927886080931B0480911B0483FB882775
:1014500080F9CF911F910F910895CF93DF9300D022
:10146000CDB7DEB7789484B5826084BD84B58160E1
:1014700084BD85B5826085BD85B5816085BD80915F
:101480006E00816080936E001092810080918100D7
:1014900082608093810080918100816080938100CF
:1014A000809180008160809380008091B100846091
:1014B0008093B1008091B00081608093B0008091F2
:1014C0007A00846080937A0080917A0082608093B1
:1014D0007A0080917A00816080937A0080917A000E
:1014E000806880937A001092C10060E08EE00E94D4
:1014F000F80262E08DE00E94F80280E090E00E9435
:10150000F30F898381E090E00E94F30F8A83898141
:101510009A818130910511F00E94EA088DE00E94C5
:101520009F02892BC9F06CEB71E081E090E00E9492
:10153000360569E071E082E090E00E9436056CE0DB
:1015400071E083E090E00E943605A5E0EA2EA1E07C
:10155000FA2E04E010E02EC068EE73E080E090E028
:101560000E94AA038DE00E949F02892B21F481E052
:1015700090E00E94EA0800E010E061E083E00E9451
:10158000C80264E670E080E090E00E94AA0360E098
:1015900083E00E94C8020230110531F064E670E079
:1015A00080E090E00E94AA030F5F1F4F03301105F7
:1015B00021F7B9CFC8010E94F30FF70181937F0192
:1015C0000F5F1F4F08301105A9F78DE080931C04B1
:1015D00010921B040E949F02892B19F083E08093D4
:1015E0001B040E94E4036093150470931604809317
:1015F00017049093180485E090E090931A04809368
:10160000190480E00E949303BC01990F880B990B89
:10161000611571058105910511F00E94EA0FE091B5
:101620006202F091630282E08083E0915E02F091B9
:101630005F021082E0916002F09161028FE380838B
:1016400010926A02E0916602F091670286E0808360
:10165000E0916402F0916502808180618083E09175
:101660006402F0916502808188608083E091640269
:10167000F0916502808180688083E0916402F0913E
:10168000650280818F7D80831092AF011092AE0140
:1016900080910E0190910F01A0911001B091110164
:1016A0004091BF015091C0016091C1017091C20190
:1016B000481759076A077B0708F059C0805F984DA3
:1016C000AF4FBF4F8093BF019093C001A093C10162
:1016D000B093C2018EE480937C0062E070E080E011
:1016E00090E00E94AA0380917A00806480937A003F
:1016F00080917A0086FDFCCF80917800209179005E
:1017000030E0322F2227A901330F660B770B9A01A5
:10171000AB01282B60E070E381E190E00E940910AA
:10172000283B3B404105510514F580910001882379
:10173000F1F00FEA13E0C12CD12CE8ECEE2EE2E43C
:10174000FE2EF801C386D486E586F68612861186BB
:1017500060E070E0C8010E9493040F5E1F4FF4E048
:1017600005311F0771F710920B0110920001809153
:101770000B01811120C087E192E0909302018093D8
:10178000010180916900836080936900E89AC12C0F
:10179000D12C48ECE42E42E4F42E88248394912C3E
:1017A00044244A9463E0562E612C712C11E101E02F
:1017B00072E0372E59C00BEE10E0C801885F9C4FD5
:1017C0007C0146E950E068EC0E94BB04C7010E941E
:1017D0008804882319F00E941107F8CFA80160E05F
:1017E000C7010E94BB04C7010E948804882319F026
:1017F0000E941107F8CF0151110906391105E9F6C8
:10180000BACFF501C386D486E586F68612861186A0
:1018100060E070E0C5010E949304F1E1AF0EB11CDD
:1018200025E1A21624E0B20661F78091CB019091E8
:10183000CC01009781F1019709F446C08091BE0167
:101840008A3010F00E944B050E9416080E94690819
:101850000E9411078091CB019091CC0118161906B6
:101860000CF4EFC10E94BE010E94E40360930E01DC
:1018700070930F0180931001909311010E94CF0982
:101880000E94C5098823D1F210920B013FEAA32ED2
:1018900033E0B32EB6CF1092C8011092C7019092D8
:1018A000CC018092CB0180910E0190910F01A0910B
:1018B0001001B09111018093C3019093C401A093D2
:1018C000C501B093C601BACF8091C9019091CA01F8
:1018D0008130910509F463C034F4892B09F0AECF4F
:1018E00030920B011DC08230910509F4FCC00397B2
:1018F00009F458C1A3CF0E9416080E9469080E94EB
:10190000CF090E94C509B82E0E94E40360930E011E
:1019100070930F018093100190931101B11019C1C0
:101920008EE00E949303BC01990F880B990B0E94D3
:10193000881120E030E040E85FE30E946C1026E66A
:1019400036E646E050E40E943D1220E030EC4FE7DE
:1019500054E40E94DE102BE734E14EEC5FE30E947A
:101960006D106093050170930601809307019093B9
:1019700008016091090170910A014FEA50E08091DD
:10198000C9019091CA010E94DE060E941107809150
:10199000BE018A3008F4AFCF0E944B05ACCFA12C1A
:1019A000B12C8EE00E949303092E000CAA0BBB0BF6
:1019B0009C01AD012150310941095109A5E0B0E078
:1019C0000E942810A30192010E9409103093BD01CA
:1019D0002093BC016091090170910A014FEA50E027
:1019E0008091C9019091CA010E94DE0660910901AF
:1019F00070910A0147E550E08091BC019091BD01D2
:101A00000E94DE068091BC019091BD018A159B0564
:101A100091F01A9DC0011B9D900D112481559C4F82
:101A2000FC01C386D486E586F6861286118660E0C0
:101A300070E00E949304A090BC01B090BD010E9490
:101A400011078091BE018A3010F00E944B050E9460
:101A500016080E9469080E94CF090E94C509282E15
:101A60000E94E40360930E0170930F0180931001B4
:101A700090931101222009F494CF1092CC0110927E
:101A8000CB0100930B012091C7013091C801129F37
:101A9000C001139F900D112481559C4FFC01C386FA
:101AA000D486E586F6861286118660E070E00E9494
:101AB00093042091BC013091BD01B0C00E94160872
:101AC0000E9469080E94CF090E94C509B82E0E9491
:101AD000E40360930E0170930F01809310019093C3
:101AE0001101B11036C08EE00E949303092E000C44
:101AF000AA0BBB0B0197A109B109BC01CD0124E0E0
:101B0000660F771F881F991F2A95D1F7A3019201AD
:101B10000E940910DA01C9010196A11DB11D90931F
:101B20000D0180930C016091090170910A0147E554
:101B300050E08091C9019091CA010E94DE060E9486
:101B400011078091BE018A3008F4B8CF0E944B057E
:101B5000B5CF1092CC011092CB015AC04AE350E0AD
:101B600061E070E0C9010E94DE060E9411078091C9
:101B7000BE018A3010F00E944B050E9416080E9498
:101B800069080E94CF090E94C509B82E0E94E4038B
:101B900060930E0170930F018093100190931101D7
:101BA000B1102CC08EE00E949303092E000CAA0BEA
:101BB000BB0B9C01AD012150310941095109AEEF28
:101BC000B0E00E942810A30192010E940910CA01EE
:101BD000B9016F5F7F4F8F4F9F4F70930A016093E2
:101BE00009012091C9013091CA0162307105810556
:101BF00091050CF4B3CF4FEA50E0B4CF1092CC0172
:101C00001092CB018091090190910A01029714F082
:101C100000930B012091C7013091C801129FC001B0
:101C2000139F900D112481559C4FFC01C386D486CF
:101C3000E586F6861286118660E070E00E949304C5
:101C4000FDCD8EE00E949303092E000CAA0BBB0B66
:101C50009C01AD012150310941095109A5E0B0E0D5
:101C60000E942810A30192010E9409103093CA011A
:101C70002093C9016091C7017091C8016217730771
:101C800051F1169FC001179F900D112481559C4F53
:101C9000FC01C386D486E586F6861286118660E04E
:101CA00070E00E9493048091C9019091CA019093C1
:101CB000C8018093C70180910E0190910F01A091FE
:101CC0001001B09111018093C3019093C401A093BE
:101CD000C501B093C6018091CB019091CC018130B8
:101CE000910559F00297B9F410920B016091090126
:101CF00070910A014FEA50E008C010920B01609108
:101D0000090170910A014EE551E08091C90190915D
:101D1000CA010E94DE0680910E0190910F01A091F0
:101D20001001B09111014091C3015091C401609123
:101D3000C5017091C601841B950BA60BB70B8938A2
:101D40009341A105B10508F48DCD1092CC011092FC
:101D5000CB018091090190910A01029714F0009340
:101D60000B012091C7013091C801129FC001139F40
:101D7000900D112481559C4FFC01C386D486E586C5
:101D8000F6861286118660E070E00E9493046ACDA8
:101D9000E2E5F2E01382128288EE93E0A0E0B0E088
:101DA00084839583A683B7838DE991E091838083B3
:101DB00085EC90E09587848784EC90E09787868710
:101DC00080EC90E0918B808B81EC90E0938B828B08
:101DD00082EC90E0958B848B86EC90E0978B868BE1
:101DE000118E128E138E148EE5E1F4E010821182B2
:101DF000128213828AE090E0958384831682178290
:101E0000EFEAF3E083E0808317821086118212826A
:101E10001382148216821582128611861386148606
:101E200015861686108A178685E0818B108E118E96
:101E3000128A138A148A158A178A168A138E128EAA
:101E4000148E158E168E178E11A210A286E082A314
:101E500011A612A613A214A215A216A210A617A2CA
:101E600014A613A615A616A617A610AA12AA11AA9A
:101E700089E083AB12AE13AE14AA15AA16AA17AA4C
:101E800011AE10AE15AE14AE1092ED031092EE032B
:101E90001092EF031092F0031092F2031092F103EC
:101EA0008AE08093F3031092FA031092FB031092DE
:101EB000F4031092F5031092F6031092F7031092B8
:101EC000F9031092F8031092FD031092FC03109294
:101ED000FE031092FF03109200041092010410926E
:101EE0000304109202048BE08093040410920B040C
:101EF00010920C041092050410920604109207042C
:101F00001092080410920A041092090410920E0410
:101F100010920D0410920F041092100410921104EC
:101F200010921204109214041092130408958F92C8
:101F30009F92AF92BF92CF92DF92EF92FF92CF9398
:101F4000DF93EC01688179818A819B81611571053C
:101F50008105910521F464E279ED8BE597E02DE1AF
:101F600033EF41E050E00E94091049015A019B0102
:101F7000AC01A7EAB1E40E9428106B017C01ACEE31
:101F8000B4EFA50194010E943610DC01CB018C0D49
:101F90009D1DAE1DBF1DB7FF03C00197A109B0482D
:101FA00088839983AA83BB83BC01CD019F77DF918E
:101FB000CF91FF90EF90DF90CF90BF90AF909F9028
:101FC0008F9008950E94970F089582E191E00E94FA
:101FD000970F089560931201709313018093140179
:101FE000909315010895F999FECF92BD81BDF89A9D
:101FF000992780B50895262FF999FECF1FBA92BD73
:1020000081BD20BD0FB6F894FA9AF99A0FBE0196D9
:102010000895052E97FB1EF400940E94201057FD92
:1020200007D00E943B1007FC03D04EF40C94201004
:1020300050954095309521953F4F4F4F5F4F0895F4
:1020400090958095709561957F4F8F4F9F4F089524
:102050000E945D10A59F900DB49F900DA49F800DD0
:10206000911D11240895B7FF0C9428100E94281088
:10207000821B930B0895A1E21A2EAA1BBB1BFD0124
:102080000DC0AA1FBB1FEE1FFF1FA217B307E40757
:10209000F50720F0A21BB30BE40BF50B661F771FAF
:1020A000881F991F1A9469F760957095809590958F
:1020B0009B01AC01BD01CF010895A29FB001B39F68
:1020C000C001A39F700D811D1124911DB29F700D41
:1020D000811D1124911D08955058BB27AA270E94E5
:1020E00084100C94FE110E94F01138F00E94F71138
:1020F00020F039F49F3F19F426F40C94ED110EF4FE
:10210000E095E7FB0C94E711E92F0E940F1258F3BA
:10211000BA17620773078407950720F079F4A6F5CC
:102120000C9431120EF4E0950B2EBA2FA02D0B015A
:10213000B90190010C01CA01A0011124FF27591B0C
:1021400099F0593F50F4503E68F11A16F040A22F12
:10215000232F342F4427585FF3CF46953795279583
:10216000A795F0405395C9F77EF41F16BA0B620B82
:10217000730B840BBAF09150A1F0FF0FBB1F661FC9
:10218000771F881FC2F70EC0BA0F621F731F841F0C
:1021900048F4879577956795B795F7959E3F08F032
:1021A000B0CF9395880F08F09927EE0F97958795F4
:1021B00008950E94C31108F481E008950E94F2106E
:1021C0000C94FE110E94F71158F00E94F01140F09B
:1021D00029F45F3F29F00C94E71151110C9432124D
:1021E0000C94ED110E940F1268F39923B1F355235B
:1021F00091F3951B550BBB27AA276217730784071A
:1022000038F09F5F5F4F220F331F441FAA1FA9F3AF
:1022100035D00E2E3AF0E0E832D091505040E6959D
:10222000001CCAF72BD0FE2F29D0660F771F881FFE
:10223000BB1F261737074807AB07B0E809F0BB0BF1
:10224000802DBF01FF2793585F4F3AF09E3F510505
:1022500078F00C94E7110C9432125F3FE4F3983E4F
:10226000D4F3869577956795B795F7959F5FC9F7EE
:10227000880F911D9695879597F90895E1E0660F6F
:10228000771F881FBB1F621773078407BA0720F0E8
:10229000621B730B840BBA0BEE1F88F7E095089551
:1022A0000E9457116894B1110C94321208950E9443
:1022B000171288F09F5798F0B92F9927B751B0F0AF
:1022C000E1F0660F771F881F991F1AF0BA95C9F7BA
:1022D00014C0B13091F00E943112B1E008950C9415
:1022E0003112672F782F8827B85F39F0B93FCCF3C8
:1022F000869577956795B395D9F73EF49095809537
:10230000709561957F4F8F4F9F4F0895E89409C056
:1023100097FB3EF490958095709561957F4F8F4F18
:102320009F4F9923A9F0F92F96E9BB279395F6952E
:10233000879577956795B795F111F8CFFAF4BB0FAC
:1023400011F460FF1BC06F5F7F4F8F4F9F4F16C010
:10235000882311F096E911C0772321F09EE8872F9A
:10236000762F05C0662371F096E8862F70E060E056
:102370002AF09A95660F771F881FDAF7880F9695CF
:10238000879597F90895990F0008550FAA0BE0E873
:10239000FEEF16161706E807F907C0F01216130627
:1023A000E407F50798F0621B730B840B950B39F467
:1023B0000A2661F0232B242B252B21F408950A26CD
:1023C00009F4A140A6958FEF811D811D089597F90D
:1023D0009F6780E870E060E008959FEF80EC0895CB
:1023E00000240A94161617061806090608950024F4
:1023F0000A9412161306140605060895092E03946E
:10240000000C11F4882352F0BB0F40F4BF2B11F4E1
:1024100060FF04C06F5F7F4F8F4F9F4F089557FD40
:102420009058440F551F59F05F3F71F04795880F42
:1024300097FB991F61F09F3F79F0879508951216D9
:1024400013061406551FF2CF4695F1DF08C0161685
:1024500017061806991FF1CF869571056105089436
:102460000895E894BB2766277727CB0197F908954D
:102470000E94C31108F48FEF08950E9450120C942B
:10248000FE110E94F01138F00E94F71120F0952300
:1024900011F00C94E7110C94ED1111240C943212EC
:1024A0000E940F1270F3959FC1F3950F50E0551FD6
:1024B000629FF001729FBB27F00DB11D639FAA2799
:1024C000F00DB11DAA1F649F6627B00DA11D661FE8
:1024D000829F2227B00DA11D621F739FB00DA11D09
:1024E000621F839FA00D611D221F749F3327A00DC3
:1024F000611D231F849F600D211D822F762F6A2F5F
:1025000011249F5750409AF0F1F088234AF0EE0FC3
:10251000FF1FBB1F661F771F881F91505040A9F7F0
:102520009E3F510580F00C94E7110C9432125F3FEE
:10253000E4F3983ED4F3869577956795B795F7952C
:10254000E7959F5FC1F7FE2B880F911D96958795A4
:1025500097F9089519F416F40C94ED110C94F012F7
:102560000E941712B8F39923C9F3B6F39F57550B7E
:1025700087FF0E94FE120024A0E640EA90018058E6
:102580005695979528F4805C660F771F881F20F07A
:1025900026173707480730F4621B730B840B20297A
:1025A00031294A2BA69517940794202531254A27CF
:1025B00058F7660F771F881F20F026173707480740
:1025C00030F4620B730B840B200D311D411DA0955F
:1025D00081F7B901842F9158880F969587950895B2
:1025E0009F3F31F0915020F4879577956795B79587
:1025F000880F911D9695879597F9089591505040B1
:10260000660F771F881FD2F70895DB018F939F9382
:102610000E942810BF91AF91A29F800D911DA39F92
:10262000900DB29F900D1124089597FB072E16F47C
:10263000009407D077FD09D00E94381307FC05D01D
:102640003EF4909581959F4F0895709561957F4FC9
:1026500008950E945D10332312F48A1B9B0B0C9487
:1026600033130E945D10B7FF0895821B930B0895EA
:10267000AA1BBB1B51E107C0AA1FBB1FA617B707A8
:1026800010F0A61BB70B881F991F5A95A9F78095C4
:102690009095BC01CD010895EE0FFF1F0590F491B8
:1026A000E02D099481E090E0F8940C945713F8948D
:0226B000FFCF5A
:1026B20001160216029A99D93FBE000101000100DB
:1026C2000000010000000C000100020003000400F1
:1026D200050006000700080009000A000B000C00B4
:1026E2000700010003000500060008000A000C00B4
:1026F20000000000000000000000070001000300CD
:1027020004000600080009000B00000000000000A1
:1027120000000000070001000200020005000600A0
:1027220009000B000000000000000000000007008C
:102732000100030004000600080009000B0000006D
:1027420000000000000000000000000000F7008C04
:0C27520000BB003E01B701CA00DD000022
:107E0000112484B714BE81FFF0D085E080938100F7
:107E100082E08093C00088E18093C10086E0809377
:107E2000C20080E18093C4008EE0C9D0259A86E02C
:107E300020E33CEF91E0309385002093840096BBD3
:107E4000B09BFECF1D9AA8958150A9F7CC24DD24C4
:107E500088248394B5E0AB2EA1E19A2EF3E0BF2EE7
:107E6000A2D0813461F49FD0082FAFD0023811F036
:107E7000013811F484E001C083E08DD089C08234E0
:107E800011F484E103C0853419F485E0A6D080C0E4
:107E9000853579F488D0E82EFF2485D0082F10E0AE
:107EA000102F00270E291F29000F111F8ED06801E7
:107EB0006FC0863521F484E090D080E0DECF843638
:107EC00009F040C070D06FD0082F6DD080E0C81688
:107ED00080E7D80618F4F601B7BEE895C0E0D1E017
:107EE00062D089930C17E1F7F0E0CF16F0E7DF06D8
:107EF00018F0F601B7BEE89568D007B600FCFDCFD4
:107F0000A601A0E0B1E02C9130E011968C91119780
:107F100090E0982F8827822B932B1296FA010C0160
:107F200087BEE89511244E5F5F4FF1E0A038BF0790
:107F300051F7F601A7BEE89507B600FCFDCF97BE46
:107F4000E89526C08437B1F42ED02DD0F82E2BD052
:107F50003CD0F601EF2C8F010F5F1F4F84911BD097
:107F6000EA94F801C1F70894C11CD11CFA94CF0C13
:107F7000D11C0EC0853739F428D08EE10CD085E9AC
:107F80000AD08FE07ACF813511F488E018D01DD067
:107F900080E101D065CF982F8091C00085FFFCCF94
:107FA0009093C60008958091C00087FFFCCF809118
:107FB000C00084FD01C0A8958091C6000895E0E648
:107FC000F0E098E1908380830895EDDF803219F02E
:107FD00088E0F5DFFFCF84E1DECF1F93182FE3DFCA
:107FE0001150E9F7F2DF1F91089580E0E8DFEE27F6
:047FF000FF270994CA
:027FFE00040479
:0400000300007E007B
:00000001FF
