:100000000C9462000C940D030C94E6020C946F089F
:100010000C948A000C948A000C948A000C948A0038
:100020000C948A000C948A000C948A000C948A0028
:100030000C948A000C948A000C948A000C948A0018
:100040000C949C020C948A000C9499090C947309EA
:100050000C948A000C948A000C948A000C948A00F8
:100060000C948A000C948A000000000024002700F1
:100070002A0000000000250028002B0000000000DE
:1000800023002600290004040404040404040202DA
:100090000202020203030303030301020408102007
:1000A0004080010204081020010204081020000012
:1000B0000008000201000003040700000000000027
:1000C0000000BE0E11241FBECFEFD8E0DEBFCDBFB3
:1000D00011E0A0E0B1E0E6E7F6E202C005900D9283
:1000E000A639B107D9F723E0A6E9B1E001C01D9216
:1000F000AF3FB207E1F710E0C2E6D0E004C02197BD
:10010000FE010E942E13C136D107C9F70E94890A49
:100110000C9439130C940000FC01918D828D981B76
:10012000892F90E0089580E090E0892B29F00E94CB
:10013000000981110C94000008953FB7F894809154
:10014000C7019091C801A091C901B091CA0126B51B
:10015000A89B05C02F3F19F00196A11DB11D3FBFFF
:10016000BA2FA92F982F8827820F911DA11DB11D8D
:10017000BC01CD0142E0660F771F881F991F4A9589
:10018000D1F7089508950F931F93CF93DF93809134
:10019000E1018A3008F042C0C091E101D0E00E9444
:1001A0009D00009196011091970120919801309146
:1001B0009901DC01CB01801B910BA20BB30BCC0F7F
:1001C000DD1FCC0FDD1FC656DE4F88839983AA83BF
:1001D000BB83E091E10184E0E89FF0011124E65641
:1001E000FE4F40815181628173818091960190918F
:1001F0009701A0919801B0919901840F951FA61FB6
:10020000B71F8093960190939701A0939801B093A4
:1002100099018091E1018F5F8093E101DF91CF919E
:100220001F910F9108950F931F93CF93DF93EC01CC
:100230008B01FB0160810E94E50FF8016181CE0115
:1002400001960E94E50F82E090E0DF91CF911F912F
:100250000F910895FC01848DDF01A80FB11DA35EED
:10026000BE4F2C91848D90E001968F739927848FD7
:10027000A689B7892C93A089B1898C9180648C93CD
:10028000938D848D981306C00288F389E02D8081B8
:100290008F7D80830895833081F028F4813099F038
:1002A0008230A1F008958730A9F08830B9F0843009
:1002B000D1F4809180008F7D03C0809180008F7782
:1002C00080938000089584B58F7702C084B58F7DB8
:1002D00084BD08958091B0008F7703C08091B000F5
:1002E0008F7D8093B00008951F93CF93DF93282FC5
:1002F00030E0F901E255FF4F8491F901E656FF4FD6
:10030000D491F901EA57FF4FC491CC23C9F0162FBD
:1003100081110E944B01EC2FF0E0EE0FFF1FEE5811
:10032000FF4FA591B4918FB7F894111105C09C911E
:10033000ED2FE095E92302C0EC91ED2BEC938FBFFC
:10034000DF91CF911F910895CF93DF9390E0FC014F
:10035000E656FF4F2491FC01EA57FF4F8491882312
:1003600061F190E0880F991FFC01E859FF4FC5919A
:10037000D491FC01EE58FF4FA591B491611109C0D1
:100380009FB7F8948881209582238883EC912E234F
:100390000BC0623061F49FB7F8943881822F80954A
:1003A00083238883EC912E2B2C939FBF06C08FB79D
:1003B000F894E8812E2B28838FBFDF91CF91089589
:1003C0001F93CF93DF93182FEB0161E00E94A401EC
:1003D000209711F460E004C0CF3FD10539F461E00B
:1003E000812FDF91CF911F910C947401E12FF0E0E8
:1003F000E255FF4FE491E330F9F048F4E130B9F011
:10040000E230A1F584B5806284BDC8BD34C0E73058
:10041000E9F0E83019F1E43049F58091800080621C
:1004200080938000D0938B00C0938A0024C084B551
:10043000806884BDC7BD1FC08091800080688093A4
:100440008000D0938900C093880015C08091B000CF
:1004500080688093B000C093B3000DC08091B0005D
:1004600080628093B000C093B40005C0C038D1054D
:100470000CF0B5CFAFCFDF91CF911F9108958E30A3
:1004800008F08E508770806480937C0080917A00A1
:10049000806480937A0080917A0086FDFCCF809101
:1004A00078002091790090E0922B08958F929F928E
:1004B000AF92BF92CF92DF92EF92FF926B017C01DD
:1004C0000E949D004B015C01C114D104E104F104C0
:1004D000F1F00E949D00DC01CB0188199909AA095D
:1004E000BB09883E9340A105B10570F321E0C21A13
:1004F000D108E108F10888EE880E83E0981EA11C5F
:10050000B11CC114D104E104F10419F7DDCFFF904F
:10051000EF90DF90CF90BF90AF909F908F90089515
:100520002FB7F8946091C3017091C4018091C50107
:100530009091C6012FBF08951F920F920FB60F9290
:1005400011242F933F938F939F93AF93BF938091E9
:10055000C3019091C401A091C501B091C601309131
:10056000C20123E0230F2D3720F40196A11DB11DF8
:1005700005C026E8230F0296A11DB11D2093C201DC
:100580008093C3019093C401A093C501B093C601A9
:100590008091C7019091C801A091C901B091CA0191
:1005A0000196A11DB11D8093C7019093C801A0932E
:1005B000C901B093CA01BF91AF919F918F913F91B3
:1005C0002F910F900FBE0F901F9018951F920F92B2
:1005D0000FB60F9211242F933F934F935F936F9316
:1005E0007F938F939F93AF93BF93EF93FF93E0918C
:1005F0006F01F09170010995FF91EF91BF91AF915B
:100600009F918F917F916F915F914F913F912F912A
:100610000F900FBE0F901F9018951F920F920FB65C
:100620000F9211242F933F934F935F936F937F9378
:100630008F939F93AF93BF93EF93FF93E0916D01DF
:10064000F0916E010995FF91EF91BF91AF919F914C
:100650008F917F916F915F914F913F912F910F906B
:100660000FBE0F901F901895FC018081882329F000
:1006700081E021853285232B09F480E00895CF9312
:10068000DF93DC018C918823F9F077FD07C06F3F81
:10069000710529F024F06FEF70E001C060E017965B
:1006A0006C9317971F96ED91FC915097309739F006
:1006B000ED01862F0995682F70E0888101C070E0F8
:1006C000DF91CF910C94E001DF91CF910895AF922B
:1006D000BF92CF92DF92EF92FF921F93CF93DF935F
:1006E000EC011A8619861B861C861D861E8688814B
:1006F000882309F45DC01F81611709F459C0A62E33
:10070000B12C4531510568F4B501CE01DF91CF918F
:100710001F91FF90EF90DF90CF90BF90AF900C941F
:100720003F035A8749876887BA0180E090E00E94BA
:1007300070116B017C01812F90E08A199B0997FF52
:1007400003C0919581959109BC01990F880B990B74
:100750000E9472119B01AC01C701B6010E94C81032
:100760006B017C0120E030E0A9010E94221220E010
:1007700030E040E05FE387FD05C0C701B6010E949D
:10078000571004C0C701B6010E9456100E943A11CA
:100790006431710518F07E836D8304C084E190E0BC
:1007A0009E838D830E94900269837A838B839C83CE
:1007B000DF91CF911F91FF90EF90DF90CF90BF908E
:1007C000AF9008950F931F93CF93DF93EC018B01AC
:1007D000FB0160810E94E50FF8016181CE01019665
:1007E0000E94E50F82E090E0DF91CF911F910F9181
:1007F00008950F931F93CF93DF938C01EB010E9419
:10080000DD0F8883C80101960E94DD0F898382E095
:1008100090E0DF91CF911F910F9108954F925F92D9
:100820006F927F928F929F92AF92BF92CF92DF9200
:10083000EF92FF920F931F93CF93DF9300D000D0DE
:10084000CDB7DEB78091E1018A3009F053C1812C28
:10085000912C540101E010E0C12CD12C760120EA4A
:1008600036E841E050E029833A834B835C83412C96
:10087000512C3201F801EE0FFF1FEE0FFF1FE6565D
:10088000FE4F60817181828193814616570668060A
:10089000790610F42B013C0129813A814B815C815E
:1008A000621773078407950720F469837A838B8323
:1008B0009C83C60ED71EE81EF91E9B01AC010E9448
:1008C000EF120E9470119B01AC01C501B4010E949E
:1008D00057104B015C010F5F1F4F0A30110551F695
:1008E000C701B60129E030E040E050E00E94251049
:1008F00069017A0120E030E040E151E4C501B40132
:100900000E94C8104B015C01A7019601C701B60106
:100910000E94EF120E9470119B01AC01C501B4014D
:100920000E9456100E949A124B015C0120E030E0B8
:1009300040E85FE30E94C31087FF06C0812C912C22
:10094000F0E8AF2EFFE3BF2E89819A81AB81BC8195
:10095000481A590A6A0A7B0AC301B2010E9470113F
:1009600069837A838B839C8320917101309172011A
:100970004091730150917401C501B4010E94271286
:100980009B01AC0169817A818B819C810E9422123A
:1009900018160CF473C06FC0401751078CF09F5F9E
:1009A000292F30E0261737070CF0A1C0220F331F84
:1009B000FD01E20FF31F008111814017510761F71C
:1009C000C301B2012FE730E040E050E00E94251063
:1009D0004B015C019B01AC012150310941095109D6
:1009E000A0E6B9E00E9412102EE730E040E050E0AF
:1009F0000E94F30F26503F4FC90164E670E00E9449
:100A0000FF127C01A3E0EA0EF11C80917801909125
:100A10007901A90160E070E09C01C80148960E943C
:100A2000070A80E590E09093CC018093CB019092EF
:100A3000D0018092CF01C701FF0CAA0BBB0B8093A2
:100A4000D5019093D601A093D701B093D8014091DE
:100A50007A0150917B0160917C0170917D01840F3E
:100A6000951FA61FB71F8093D1019093D201A09329
:100A7000D301B093D4011092E1013CC00E94CF0F8A
:100A8000C701B6012FE730E040E050E00E9425109A
:100A9000DC01CB010197A109B109BC01CD0122E024
:100AA000660F771F881F991F2A95D1F72EE730E030
:100AB00040E050E00E94F30FDA01C9018096A11DC9
:100AC000B11D6CE070E00E94FF12AC018091DB016F
:100AD0009091DC012AE1289FD001299FB00D1124BB
:100AE000AB5FBE4F6D917C91119791E059CF06E0BD
:100AF00010E066CF0F900F900F900F90DF91CF9185
:100B00001F910F91FF90EF90DF90CF90BF90AF902B
:100B10009F908F907F906F905F904F9008950F936C
:100B20001F93CF93DF9300D01F92CDB7DEB721E1A3
:100B3000FC012E9FC0012F9F900D11248C010756A0
:100B40001C4FC80149835A836B830E943403498137
:100B50005A816B8181110EC0F8018781811160E09B
:100B6000C8010F900F900F90DF91CF911F910F91BF
:100B70000C9467030F900F900F90DF91CF911F910E
:100B80000F910895CF92DF92EF92FF92CF93DF9370
:100B900080917A0190917B01A0917C01B0917D01BF
:100BA0004091010150910201609103017091040193
:100BB000481759076A077B0708F057C0805F984DB0
:100BC000AF4FBF4F8093010190930201A0930301A7
:100BD000B09304018EE480937C0062E070E080E0DA
:100BE00090E00E94560280917A00806480937A009F
:100BF00080917A0086FDFCCF809178002091790069
:100C000030E0322F2227A901330F660B770B9A01B0
:100C1000AB01282B60E070E381E190E00E94F30FCC
:100C2000283B3B404105510504F580910001882394
:100C3000E1F0C9E9D3E0C12CD12C88ECE82E82E4A4
:100C4000F82ECB86DC86ED86FE861A86198660E055
:100C500070E0CE010E943F03619683E0CF3FD8074A
:100C600081F71092770110920001DF91CF91FF90F0
:100C7000EF90DF90CF9008950E94CA09892B81F4EC
:100C800064E670E080E090E00E9456020E94CA098B
:100C900031E020E0892B09F430E0832F922F089572
:100CA00081E090E008954F925F926F927F928F92D1
:100CB0009F92AF92BF92CF92DF92EF92FF920F93EB
:100CC0001F93CF93DF93C9E9D3E001EA13E0412CEE
:100CD000512C88EC682E82E4782E8881882309F4D0
:100CE00086C089859A85892B09F481C00E9490026B
:100CF00029813A817B01E21AF30A8D819E81E816EF
:100D0000F90608F474C0B70180E090E00E94701109
:100D10004B015C0169857A8580E090E00E9470114A
:100D20009B01AC01C501B4010E94C8104B015C01DC
:100D30009B01AC016B857C858D859E850E9457103B
:100D40006B877C878D879E8720E030E040E85FE3FB
:100D5000C501B4010E94221287FD0DC04B865C863E
:100D60006D867E861A861986F801608170E0CE0154
:100D70000E943F033CC0F8013197C080D12CF8019C
:100D8000608170E06C197D09072E000C880B990BAF
:100D90000E947211A50194010E9427124B015C016F
:100DA00020E030E0A9010E94221220E030E040E083
:100DB0005FE387FD05C0C501B4010E94571004C060
:100DC000C501B4010E9456100E943A116C0D7D1DA0
:100DD000CE010E943F0389859A858E199F099A87C3
:100DE00089870E94900269837A838B839C836196B2
:100DF0000F5E1F4FF3E0CF3FDF0709F06ECFDF91AB
:100E0000CF911F910F91FF90EF90DF90CF90BF9007
:100E1000AF909F908F907F906F905F904F900895CC
:100E20000F931F93CF93DF938C01EA0120917501FB
:100E300030917601DB010E9413132FEF30E040E088
:100E400050E00E94F30F81E1809FF001819FF00D3F
:100E50001124AE01622FCF0187569C4FDF91CF91B5
:100E60001F910F910C9467030F931F93CF93DF9300
:100E70008A01E901F8949FEF960F9F70692F682B04
:100E80008CE392E00E940A09B8016F7777278CE320
:100E900092E00E940A09BE016F7777278CE392E007
:100EA0000E940A097894DF91CF911F910F910895C4
:100EB000EF92FF920F931F93CF93DF93CCEED1E08D
:100EC00009E913E08C819D8198012F5E3F4F7901E4
:100ED000892B99F14E815F816885798580917A01AE
:100EE00090917B01A0917C01B0917D0184179507C1
:100EF000A607B70710F14A815B8160917801709174
:100F0000790120E030E080E990E00E9434071D8202
:100F10001C8280917701813031F441EE50E060E035
:100F2000C8010E94670380917701823031F441EE5D
:100F300050E060E0C7010E9467036096870132E0DD
:100F4000CC33D30709F0BECFDF91CF911F910F9122
:100F5000FF90EF9008950F931F93CF93DF938091AD
:100F6000CD019091CE01C091CF01D091D001C81B8D
:100F7000D90B09F46CC040917A0150917B016091CA
:100F80007C0170917D010091D1011091D2012091DD
:100F9000D3013091D401041715072607370708F04D
:100FA00056C00091D5011091D6012091D701309102
:100FB000D801400F511F621F731F4093D1015093FE
:100FC000D2016093D3017093D4011C161D0614F452
:100FD000019601C001979093CE018093CD0120919D
:100FE000CD013091CE014091CB015091CC01609167
:100FF00078017091790180EB90E00E943407A09114
:10100000CD01B091CE012FEF30E00E9413132FE7F6
:1010100030E040E050E00E94F30F1C161D0664F41F
:10102000CA01B90145E050E085E090E0DF91CF9141
:101030001F910F910C94100745E050E0622F8EEE47
:1010400093E0DF91CF911F910F910C946703DF9193
:10105000CF911F910F910895CF93DF9300D000D0CF
:10106000CDB7DEB71A821982BE016F5F7F4F81E074
:1010700090E00E9413018FEF90E09A838983BE0174
:101080006F5F7F4F83E090E00E94130181E090E06A
:101090009A838983BE016F5F7F4F85E090E00E9455
:1010A000130183E393E3A3E1B0E489839A83AB83E1
:1010B000BC83CE0101960E94EE0982E090E09A8303
:1010C0008983BE016F5F7F4F80E090E00E94130133
:1010D0000F900F900F900F90DF91CF9108951F9276
:1010E0000F920FB60F9211242F933F934F935F935C
:1010F0006F937F938F939F93AF93BF93EF93FF93E0
:101100000E94CA09892B51F40E9490026093DD016C
:101110007093DE018093DF019093E001FF91EF91E6
:10112000BF91AF919F918F917F916F915F914F91FF
:101130003F912F910F900FBE0F901F901895CF9257
:10114000DF92EF92FF920F931F93CF93DF936C0187
:101150007A018B01C0E0D0E0CE15DF0589F0D8011F
:101160006D918D01D601ED91FC910190F081E02D02
:10117000C6010995892B11F47E0102C02196ECCF9E
:10118000C701DF91CF911F910F91FF90EF90DF90FA
:10119000CF900895089580E090E00895FC01538D6C
:1011A000448D252F30E0842F90E0821B930B541741
:1011B00010F0CF96089501970895FC01918D828DCE
:1011C000981759F0828DDF01A80FB11D5D968C91A3
:1011D000928D9F5F928F90E008958FEF9FEF08951B
:1011E000FC01918D828D981731F0828DE80FF11DF1
:1011F000858D90E008958FEF9FEF08950E9434133E
:101200008CE392E00E948C0021E0892B09F420E01D
:10121000822F0895EF92FF920F931F93CF93DF9346
:10122000EC0181E0888F9B8D8C8D981305C0E88937
:10123000F989808185FD24C0F62E0B8D10E00F5FAB
:101240001F4F0F731127E02E8C8DE8120CC00FB6C4
:1012500007FCFACFE889F989808185FFF5CFCE01B7
:101260000E942A01F1CF8B8DFE01E80FF11DE35E94
:10127000FE4FF0820B8FEA89FB898081806207C074
:10128000EE89FF896083E889F989808180648083A1
:1012900081E090E0DF91CF911F910F91FF90EF904F
:1012A0000895CF93DF93EC01888D8823C9F0EA89F4
:1012B000FB89808185FD05C0A889B9898C9186FD4F
:1012C0000FC00FB607FCF5CF808185FFF2CFA8894C
:1012D000B9898C9185FFEDCFCE010E942A01E7CF1D
:1012E000DF91CF9108951F920F920FB60F921124A4
:1012F0002F933F934F935F936F937F938F939F931E
:10130000AF93BF93EF93FF938CE392E00E942A0187
:10131000FF91EF91BF91AF919F918F917F916F91CD
:101320005F914F913F912F910F900FBE0F901F90A3
:1013300018951F920F920FB60F9211242F938F932F
:101340009F93EF93FF93E0914C02F0914D028081C7
:10135000E0915202F091530282FD11C09081809180
:1013600055028F5F20915602821751F0E09155028D
:10137000F0E0E45CFD4F958F8093550201C08081C1
:10138000FF91EF919F918F912F910F900FBE0F9032
:101390001F901895CF93DF93EBEBF0E08491E7EA91
:1013A000F0E0D491E3E9F0E0C491CC2391F0811115
:1013B0000E944B01EC2FF0E0EE0FFF1FE458FF4FAF
:1013C000A591B491EC91ED2381E090E021F480E0CF
:1013D00002C080E090E0DF91CF9108950F931F93BA
:1013E000CF93DF938C01C0E0D0E0F80161918F01D1
:1013F000CE0107960E94E50F2196C430D105A9F7CA
:1014000084E090E0DF91CF911F910F910895CF92EA
:10141000DF92EF92FF920F931F93CF93DF936A01B6
:101420007B01ECEEF1E0C0E0D0E044815581452B3A
:1014300009F060C0FE0144E0EE0FFF1F4A95E1F79E
:10144000E451FE4F118210829383828344E650E080
:101450005583448340917A0150917B0160917C01D6
:1014600070917D014C0D5D1D6E1D7F1D4683578360
:10147000608771873787268760917801709179013D
:1014800024E630E0AC0180E990E00E9434078091CE
:101490007701813071F409E913E0C8010E94340337
:1014A0008823A1F00F5E1F4F83E00E3E1807A9F7B7
:1014B00027C0823029F500E010E00F5E1F4FC80101
:1014C00087569C4F0E943403811110C060917501B2
:1014D00070917601A601CE01DF91CF911F910F91FE
:1014E000FF90EF90DF90CF900C941007043411051B
:1014F00021F706C021967096C530D10509F095CF29
:10150000DF91CF911F910F91FF90EF90DF90CF90DF
:101510000895CF93DF9300D0CDB7DEB7789484B52C
:10152000826084BD84B5816084BD85B5826085BDDF
:1015300085B5816085BD80916E00816080936E006D
:10154000109281008091810082608093810080915F
:101550008100816080938100809180008160809310
:1015600080008091B10084608093B1008091B000D0
:1015700081608093B00080917A00846080937A00CB
:1015800080917A00826080937A0080917A008160F5
:1015900080937A0080917A00806880937A0010921C
:1015A000C10060E08EE00E94A40160E08DE00E9436
:1015B000A40161E08DE00E94740180E090E00E944F
:1015C000DD0F898381E090E00E94DD0F8A838981AD
:1015D0009A81029711F00E942C080E94CA09892B57
:1015E000C9F06BED71E081E090E00E94F90365E7DE
:1015F00071E083E090E00E94F90368E771E085E024
:1016000090E00E94F903A1E7EA2EA1E0FA2E07E09C
:1016100010E02BC068EE73E080E090E00E9456027C
:101620000E94CA09892B11F40E942C0800E010E0E6
:1016300061E08AE00E94740164EF71E080E090E074
:101640000E94560260E08AE00E9474010230110597
:1016500031F064EF71E080E090E00E9456020F5F8D
:101660001F4F0330110521F7BCCFC8010E94DD0FC9
:10167000F70181937F010F5F1F4F0B301105A9F711
:1016800080E00E943F02BC01990F880B990B611505
:1016900071058105910511F00E94D40FE0914C0273
:1016A000F0914D0282E08083E0914802F09149027E
:1016B0001082E0914A02F0914B028FE380831092F6
:1016C0005402E0915002F091510286E08083E09153
:1016D0004E02F0914F02808180618083E0914E0242
:1016E000F0914F02808188608083E0914E02F091FA
:1016F0004F02808180688083E0914E02F0914F021A
:1017000080818F7D80831092CE011092CD010E9446
:10171000C2058091770181112BC083EC90E09093FA
:101720006E0180936D0180916900836080936900F0
:10173000E89A80916B00806280936B00D89A8091C8
:101740006800816080936800C12CD12C68ECE62E83
:1017500062E4F62E88248394912C44244A94E3E096
:101760005E2E612C712C11E101E0F2E03F2E4FC0A2
:101770000BEE10E0C8018E509D4F7C0146E950E011
:1017800068EC0E946703C7010E943403882319F0A4
:101790000E945306F8CFA80160E0C7010E946703CA
:1017A000C7010E943403882319F00E945306F8CF22
:1017B0000151110906391105E9F6AFCF0E9458070A
:1017C0000E94AB070E94530680917A0190917B01A1
:1017D000A0917C01B0917D014091DD015091DE012D
:1017E0006091DF017091E001841B950BA60BB70B94
:1017F00084369105A105B105E8F08091EA01909148
:10180000EB01181619060CF410C20E9493000E94F6
:10181000900260937A0170937B0180937C01909396
:101820007D010E94C2058091E1018A3038F20E9458
:101830000E04C4CF0E94CA09892BF9F664E670E051
:1018400080E090E00E9456020E94CA09892BA9F606
:101850001092770159E9A52E53E0B52EF501C38604
:10186000D486E586F6861286118660E070E0C501B2
:101870000E943F03F1E1AF0EB11C2FEFA21623E04F
:10188000B20661F76AEF70E080E090E00E945602D5
:101890008091EA019091EB01009719F00197D1F046
:1018A000ACCF1092E7011092E6019092EB0180928A
:1018B000EA0180917A0190917B01A0917C01B09125
:1018C0007D018093E2019093E301A093E401B09342
:1018D000E50193CF8091E8019091E9018130910574
:1018E00009F465C034F4892B09F087CF3092770171
:1018F00008C08230910509F4DEC0039709F442C1A3
:101900007CCF8EE00E943F02BC01990F880B990B9F
:101910000E94721120E030E040E85FE30E94561020
:1019200026E636E646E050E40E94271220E030EC3E
:101930004FE754E40E94C8102BE734E14EEC5FE31C
:101940000E9457106093710170937201809373012C
:101950009093740160917501709176014FEA50E0A7
:101960008091E8019091E9010E948F050E94530641
:101970008091E1018A3010F00E940E040E94580705
:101980000E94AB070E943C065C010E94900260939B
:101990007A0170937B0180937C0190937D01AB2849
:1019A00009F0AFCF81E791E00E94EE09C4C0A12CFD
:1019B000B12C8EE00E943F02A0E0B0E00197A109A7
:1019C000B109BC01CD0142E0660F771F881F991F46
:1019D0004A95D1F7A30192010E94F30F3093DC01E5
:1019E0002093DB0160917501709176014FEA50E020
:1019F0008091E8019091E9010E948F056091750145
:101A00007091760147E550E08091DB019091DC0117
:101A10000E948F058091DB019091DC018A159B0566
:101A200091F01A9DC0011B9D900D112487569C4F6B
:101A3000FC01C386D486E586F6861286118660E0B0
:101A400070E00E943F03A090DB01B090DC010E9497
:101A500053068091E1018A3010F00E940E040E942A
:101A600058070E94AB070E943C06892B09F0A1CFC2
:101A70006BED71E081E090E00E94E203009377015A
:101A80002091E6013091E701129FC001139F900D54
:101A9000112487569C4FFC01C386D486E586F686C2
:101AA0001286118660E070E00E943F032091DB0106
:101AB0003091DC01A7C08EE00E943F02A0E0B0E0C0
:101AC0000197A109B109BC01CD0134E0660F771F70
:101AD000881F991F3A95D1F7A30192010E94F30F35
:101AE000DA01C9010196A11DB11D9093790180937E
:101AF0007801609175017091760147E550E0809121
:101B0000E8019091E9010E948F050E94530680919F
:101B1000E1018A3010F00E940E040E9458070E94D2
:101B2000AB070E943C06892B31F668E771E085E03F
:101B300090E00E94E2031092EB011092EA015CC077
:101B40004AE350E061E070E0C9010E948F050E9405
:101B500053068091E1018A3010F00E940E040E9429
:101B600058070E94AB070E943C065C010E9490024D
:101B700060937A0170937B0180937C0190937D0147
:101B8000AB2851F18EE00E943F02A0E0B0E09C0142
:101B9000AD012150310941095109AEEFB0E00E9479
:101BA0001210A30192010E94F30FCA01B9016F5FE5
:101BB0007F4F8F4F9F4F70937601609375012091F7
:101BC000E8013091E901613071058105910509F461
:101BD000B7CF4FEA50E0B8CF65E771E083E090E01F
:101BE0000E94E2031092EB011092EA0180917501CC
:101BF00090917601029710F0009377012091E60111
:101C00003091E701129FC001139F900D1124875658
:101C10009C4FFC01C386D486E586F6861286118623
:101C200060E070E00E943F03E8CD8EE00E943F023A
:101C3000092E000CAA0BBB0B0197A109B109BC012D
:101C4000CD0122E0660F771F881F991F2A95D1F7D3
:101C5000A30192010E94F30F3093E9012093E80160
:101C60006091E6017091E7016217730751F1169FC9
:101C7000C001179F900D112487569C4FFC01C3860D
:101C8000D486E586F6861286118660E070E00E94B2
:101C90003F038091E8019091E9019093E7018093DF
:101CA000E60180917A0190917B01A0917C01B09135
:101CB0007D018093E2019093E301A093E401B0934E
:101CC000E5018091EA019091EB018130910559F095
:101CD0000297B9F4109277016091750170917601C5
:101CE0004FEA50E008C01092770160917501709141
:101CF00076014EE551E08091E8019091E9010E9462
:101D00008F0580917A0190917B01A0917C01B09127
:101D10007D014091E2015091E3016091E4017091F5
:101D2000E501841B950BA60BB70B89389341A105E0
:101D3000B10508F46ACD1092EB011092EA0180918E
:101D4000750190917601029710F000937701209130
:101D5000E6013091E701129FC001139F900D1124FD
:101D600087569C4FFC01C386D486E586F68612868C
:101D7000118660E070E00E943F0347CDECE3F2E0A3
:101D80001382128288EE93E0A0E0B0E08483958312
:101D9000A683B78387E891E09183808385EC90E008
:101DA0009587848784EC90E09787868780EC90E025
:101DB000918B808B81EC90E0938B828B82EC90E016
:101DC000958B848B86EC90E0978B868B118E128E90
:101DD000138E148EE9E9F3E083E080831782108686
:101DE0001182128213821482168215821286118643
:101DF0001386148615861686108A178685E0818BD1
:101E0000108E118E128A138A148A158A178A168ADE
:101E1000138E128E148E158E168E178E11A210A28E
:101E200086E082A311A612A613A214A215A216A2DE
:101E300010A617A214A613A615A616A617A610AAD2
:101E400012AA11AA89E083AB12AE13AE14AA15AA86
:101E500016AA17AA11AE10AE15AE14AE1092D70383
:101E60001092D8031092D9031092DA031092DC0377
:101E70001092DB038AE08093DD031092E40310925A
:101E8000E5031092DE031092DF031092E00310923C
:101E9000E1031092E3031092E2031092E703109221
:101EA000E6031092E8031092E9031092EA031092FD
:101EB000EB031092ED031092EC038BE08093EE03A2
:101EC0001092F5031092F6031092EF031092F003B4
:101ED0001092F1031092F2031092F4031092F303A4
:101EE0001092F8031092F7031092F9031092FA037C
:101EF0001092FB031092FC031092FE031092FD035C
:101F000008958F929F92AF92BF92CF92DF92EF92FD
:101F1000FF92CF93DF93EC01688179818A819B8165
:101F2000611571058105910521F464E279ED8BE578
:101F300097E02DE133EF41E050E00E94F30F4901BB
:101F40005A019B01AC01A7EAB1E40E9412106B0197
:101F50007C01ACEEB4EFA50194010E942010DC01DD
:101F6000CB018C0D9D1DAE1DBF1DB7FF03C001979A
:101F7000A109B04888839983AA83BB83BC01CD01A2
:101F80009F77DF91CF91FF90EF90DF90CF90BF9040
:101F9000AF909F908F9008950E94810F08958EE7D3
:101FA00091E00E94810F089560937E0170937F01FC
:101FB00080938001909381010895F999FECF92BD9D
:101FC00081BDF89A992780B50895262FF999FECFFB
:101FD0001FBA92BD81BD20BD0FB6F894FA9AF99A46
:101FE0000FBE01960895052E97FB1EF400940E94E3
:101FF0000A1057FD07D00E94251007FC03D04EF4AD
:102000000C940A1050954095309521953F4F4F4FB5
:102010005F4F089590958095709561957F4F8F4F94
:102020009F4F08950E944710A59F900DB49F900D5B
:10203000A49F800D911D11240895B7FF0C941210D8
:102040000E941210821B930B0895A1E21A2EAA1B64
:10205000BB1BFD010DC0AA1FBB1FEE1FFF1FA21758
:10206000B307E407F50720F0A21BB30BE40BF50B55
:10207000661F771F881F991F1A9469F760957095DE
:10208000809590959B01AC01BD01CF010895A29F61
:10209000B001B39FC001A39F700D811D1124911D3C
:1020A000B29F700D811D1124911D08955058BB27BA
:1020B000AA270E946E100C94E8110E94DA1138F0E1
:1020C0000E94E11120F039F49F3F19F426F40C949A
:1020D000D7110EF4E095E7FB0C94D111E92F0E9483
:1020E000F91158F3BA17620773078407950720F0B0
:1020F00079F4A6F50C941B120EF4E0950B2EBA2F72
:10210000A02D0B01B90190010C01CA01A0011124FD
:10211000FF27591B99F0593F50F4503E68F11A16A9
:10212000F040A22F232F342F4427585FF3CF46953A
:1021300037952795A795F0405395C9F77EF41F165C
:10214000BA0B620B730B840BBAF09150A1F0FF0F26
:10215000BB1F661F771F881FC2F70EC0BA0F621F12
:10216000731F841F48F4879577956795B795F79502
:102170009E3F08F0B0CF9395880F08F09927EE0F97
:102180009795879508950E94AD1108F481E0089510
:102190000E94DC100C94E8110E94E11158F00E949A
:1021A000DA1140F029F45F3F29F00C94D11151115C
:1021B0000C941C120C94D7110E94F91168F3992306
:1021C000B1F3552391F3951B550BBB27AA27621733
:1021D0007307840738F09F5F5F4F220F331F441F40
:1021E000AA1FA9F335D00E2E3AF0E0E832D0915074
:1021F0005040E695001CCAF72BD0FE2F29D0660F61
:10220000771F881FBB1F261737074807AB07B0E8A3
:1022100009F0BB0B802DBF01FF2793585F4F3AF0A9
:102220009E3F510578F00C94D1110C941C125F3F25
:10223000E4F3983ED4F3869577956795B795F7952F
:102240009F5FC9F7880F911D9695879597F9089517
:10225000E1E0660F771F881FBB1F621773078407B3
:10226000BA0720F0621B730B840BBA0BEE1F88F7C2
:10227000E09508950E9441116894B1110C941C12CC
:1022800008950E94011288F09F5798F0B92F99275E
:10229000B751B0F0E1F0660F771F881F991F1AF051
:1022A000BA95C9F714C0B13091F00E941B12B1E089
:1022B00008950C941B12672F782F8827B85F39F088
:1022C000B93FCCF3869577956795B395D9F73EF4EA
:1022D00090958095709561957F4F8F4F9F4F089592
:1022E000E89409C097FB3EF49095809570956195B0
:1022F0007F4F8F4F9F4F9923A9F0F92F96E9BB2766
:102300009395F695879577956795B795F111F8CFE1
:10231000FAF4BB0F11F460FF1BC06F5F7F4F8F4F4C
:102320009F4F16C0882311F096E911C0772321F042
:102330009EE8872F762F05C0662371F096E8862FDA
:1023400070E060E02AF09A95660F771F881FDAF731
:10235000880F9695879597F90895990F0008550F5E
:10236000AA0BE0E8FEEF16161706E807F907C0F01B
:1023700012161306E407F50798F0621B730B840B23
:10238000950B39F40A2661F0232B242B252B21F4FD
:1023900008950A2609F4A140A6958FEF811D811D9D
:1023A000089597F99F6780E870E060E008959FEFD7
:1023B00080EC089500240A941616170618060906DC
:1023C000089500240A9412161306140605060895AB
:1023D000092E0394000C11F4882352F0BB0F40F433
:1023E000BF2B11F460FF04C06F5F7F4F8F4F9F4F73
:1023F000089557FD9058440F551F59F05F3F71F0F5
:102400004795880F97FB991F61F09F3F79F087955B
:102410000895121613061406551FF2CF4695F1DFE4
:1024200008C0161617061806991FF1CF8695710574
:10243000610508940895E894BB2766277727CB01A8
:1024400097F908950E94AD1108F48FEF08950E9446
:102450003A120C94E8110E94DA1138F00E94E1114E
:1024600020F0952311F00C94D1110C94D711112464
:102470000C941C120E94F91170F3959FC1F3950FF3
:1024800050E0551F629FF001729FBB27F00DB11DF8
:10249000639FAA27F00DB11DAA1F649F6627B00D88
:1024A000A11D661F829F2227B00DA11D621F739F71
:1024B000B00DA11D621F839FA00D611D221F749F7F
:1024C0003327A00D611D231F849F600D211D822FC6
:1024D000762F6A2F11249F5750409AF0F1F08823ED
:1024E0004AF0EE0FFF1FBB1F661F771F881F91501A
:1024F0005040A9F79E3F510580F00C94D1110C94E7
:102500001C125F3FE4F3983ED4F386957795679568
:10251000B795F795E7959F5FC1F7FE2B880F911D43
:102520009695879597F9089519F416F40C94D71198
:102530000C94DA120E940112B8F39923C9F3B6F38E
:102540009F57550B87FF0E94E8120024A0E640EA3F
:10255000900180585695979528F4805C660F771FF8
:10256000881F20F026173707480730F4621B730BCB
:10257000840B202931294A2BA695179407942025EE
:1025800031254A2758F7660F771F881F20F0261736
:102590003707480730F4620B730B840B200D311D95
:1025A000411DA09581F7B901842F9158880F969508
:1025B000879508959F3F31F0915020F48795779546
:1025C0006795B795880F911D9695879597F908950A
:1025D00091505040660F771F881FD2F70895DB0196
:1025E0008F939F930E941210BF91AF91A29F800D75
:1025F000911DA39F900DB29F900D1124089597FBFC
:10260000072E16F4009407D077FD09D00E941A1304
:1026100007FC05D03EF4909581959F4F08957095E5
:1026200061957F4F08950E944710B7FF0895821B60
:10263000930B0895AA1BBB1B51E107C0AA1FBB1F28
:10264000A617B70710F0A61BB70B881F991F5A953E
:10265000A9F780959095BC01CD010895EE0FFF1F5D
:102660000590F491E02D099481E090E0F8940C94A9
:062670003913F894FFCFBE
:1026760001881300000C000100020003000400059D
:102686000006000700080009000A000B000C0007FE
:1026960000010003000500060008000A000C000007
:1026A6000000000000000000000700010002000218
:1026B600000500060009000B0000000000000000F5
:1026C60000000007000100030004000600080009DE
:1026D600000B0000000000000000000000C200C265
:1026E6000033331340BE0001010001000000010069
:1026F600000000000000000A099F08CE0851098C5E
:0627060000DD08F00800F0
:107E0000112484B714BE81FFF0D085E080938100F7
:107E100082E08093C00088E18093C10086E0809377
:107E2000C20080E18093C4008EE0C9D0259A86E02C
:107E300020E33CEF91E0309385002093840096BBD3
:107E4000B09BFECF1D9AA8958150A9F7CC24DD24C4
:107E500088248394B5E0AB2EA1E19A2EF3E0BF2EE7
:107E6000A2D0813461F49FD0082FAFD0023811F036
:107E7000013811F484E001C083E08DD089C08234E0
:107E800011F484E103C0853419F485E0A6D080C0E4
:107E9000853579F488D0E82EFF2485D0082F10E0AE
:107EA000102F00270E291F29000F111F8ED06801E7
:107EB0006FC0863521F484E090D080E0DECF843638
:107EC00009F040C070D06FD0082F6DD080E0C81688
:107ED00080E7D80618F4F601B7BEE895C0E0D1E017
:107EE00062D089930C17E1F7F0E0CF16F0E7DF06D8
:107EF00018F0F601B7BEE89568D007B600FCFDCFD4
:107F0000A601A0E0B1E02C9130E011968C91119780
:107F100090E0982F8827822B932B1296FA010C0160
:107F200087BEE89511244E5F5F4FF1E0A038BF0790
:107F300051F7F601A7BEE89507B600FCFDCF97BE46
:107F4000E89526C08437B1F42ED02DD0F82E2BD052
:107F50003CD0F601EF2C8F010F5F1F4F84911BD097
:107F6000EA94F801C1F70894C11CD11CFA94CF0C13
:107F7000D11C0EC0853739F428D08EE10CD085E9AC
:107F80000AD08FE07ACF813511F488E018D01DD067
:107F900080E101D065CF982F8091C00085FFFCCF94
:107FA0009093C60008958091C00087FFFCCF809118
:107FB000C00084FD01C0A8958091C6000895E0E648
:107FC000F0E098E1908380830895EDDF803219F02E
:107FD00088E0F5DFFFCF84E1DECF1F93182FE3DFCA
:107FE0001150E9F7F2DF1F91089580E0E8DFEE27F6
:047FF000FF270994CA
:027FFE00040479
:0400000300007E007B
:00000001FF
